:020000040000FA
:100000008B018316850186018701880189010630ED
:100010009F00F001F101831203138501860187011E
:10002000880189010130890078200310890D78202A
:1000300089010130850078200310850D7820031098
:10004000850D78200310850D78200310850D78200C
:10005000203085007820850101308600782003104B
:10006000860D78200310860D78200310860D7820E9
:100070000310860D78200310860D78200310860D5E
:1000800078200310860D78208601013087007820C3
:100090000310870D78200310870D78200310870D3B
:1000A00078200310870D78200310870D7820031027
:1000B000870D78200310870D782087010130880094
:1000C00078200310880D78200310880D7820031005
:1000D000880D78200310880D78200310880D782073
:1000E0000310880D78200310880D782088011228CD
:0E00F000F001F101F00B7A28F10B7A280800DC
:0200FE000034CC
:020100000034C9
:02400E00723FFF
:00000001FF
