:020000040000FA
:1000000001288B0183168501F23086008701880163
:10001000831285018601870188019320F301030182
:1000200073084420003A03191828C320F30A102843
:10003000861C1828060E0F397908F9030319F301F5
:10004000030173084420003A03192928C320F30A46
:100050002128F9030319F301030173085320003A1F
:1000600003193528C320F30A2D28861835281828A7
:100070007D20F301030173084420003A031943284B
:10008000C320F30A3B28432882074A3461346D3485
:10009000653473342034733468346934743475349B
:1000A000703421340034820747346134623465345B
:1000B00020347334683469347434753470342134C2
:1000C00000348207413442344334443445344634A6
:1000D0004734483449344A344B344C344D344E342C
:1000E0004F345034513452345334543455345634DC
:1000F0005734583459345A340034C030B4200800CE
:100100000130B42008008830F000BD30F100033029
:10011000F200F00B8C28F10B8E28F20B8928902826
:1001200000000000080083128815D420D420D420B9
:100130003330B420D420D4203230B420D420D42082
:100140002830B420D420D4200C30B420D420D420A3
:100150000630B420D420D4200130B420D420D420C0
:1001600008000130B42008000811F700F0398800B9
:100170008815D4208811770EF03988008815D4208E
:100180008811D42008000815F8007808F039043EDA
:1001900088008815D4208811780EF039043E880034
:1001A0008815D420881108001430F600FF30F500BF
:0A01B000F50BD828F60BD62808003E
:0401BA0000340034D9
:02400E00723FFF
:00000001FF
