:020000040000FA
:100000001028E730F5000430F600F50B0828F60B51
:1000100005280A28080014308100810B0D280800EB
:100020008B018316FF308500F2308600870188013E
:1000300083128501860187018801E120F301030114
:1000400073088D20003A031928281121F30A20286B
:10005000F301030173089B20003A03193228112190
:10006000F30A2A284C20CE200F08F9000E08FA00C7
:100070005A207B08B72011217C08B72011217D0868
:10008000B72011217E08B72011217F08B720112148
:10009000D120CE2028284B288F018E0187110120E6
:1000A00087150B208711051E53281014051A562892
:1000B00010100800790E0F39F03EFC00FC07E23EFC
:1000C000FD00323EFF0079080F39FD07FD07FF07ED
:1000D000E93EFE00FE07FE077A0E0F39FE07FF0716
:1000E000FE0DFF0DFF09FF0D7A080F39FF07FC0D0C
:1000F0000730FB000A30FE03FF07031C7B28FD03CB
:10010000FE07031C7F28FC03FD07031C8328FB0359
:10011000FC07031C87280034080082074834653434
:100120006C346C346F34203457346F3472346C3424
:10013000643421340034820741344234433444343B
:10014000453446344734483449344A344B344C34CB
:100150004D344E344F34503451345234533454347B
:10016000553456345734583459345A340034800096
:1001700000308A000008C03E03188A0A8200820705
:100180003034313432343334343435343634373433
:10019000383439340034C0300221080001300221E3
:1001A00008008830F000BD30F1000330F200F00BA1
:1001B000DA28F10BDC28F20BD728DE28000000003B
:1001C00008008312881522212221222133300221A6
:1001D0002221222132300221222122212830022113
:1001E000222122210C30022122212221063002214B
:1001F0002221222101300221222122210800013066
:10020000022108000811F700F03988008815222122
:100210008811770EF0398800881522218811222153
:1002200008000815F8007808F039043E88008815A1
:1002300022218811780EF039043E88008815222189
:10024000881108001430F600FF30F500F50B262960
:06025000F60B2429080052
:04025600003400343C
:02400E00723FFF
:00000001FF
