:020000040000FA
:1000000001288B0183168501F23086008701880163
:10001000831285018601870188012820861C0E280D
:10002000060E0F3917204A20861814280E2882073A
:100030003134323433344134343435343634423468
:1000400037343834393443342A3430342334443464
:1000500083128815662066206620081130306120E2
:1000600066206620562066205620562020306120CB
:1000700066206620562028304A20662066200F30F1
:100080004A206620662006304A20662066205120DD
:1000900008150800F00061205620700E61205620DF
:1000A0000800081101304A2066200800FF30F100E6
:1000B000F10B58288811FF30F100F10B5D288815ED
:1000C0000800F03988040F38880508001430F20061
:0E00D000FF30F100F10B6A28F20B68280800DF
:0200DE000034EC
:0200E0000034EA
:02400E00723FFF
:00000001FF
