:020000040000FA
:020000000029D5
:040002000034003492
:100200008B018316850186018701880107168715F2
:100210008312850186018701880107228312031357
:10022000F40183120313F301192283120313F30A57
:10023000192283120313F30A192283120313F30AF8
:10024000192283120313F30A192283120313F30AE8
:10025000192283120313F30A19228F210523013077
:1002600026233230352330303523063083120313F2
:10027000F3005422831203137508A3227708352351
:10028000780835232F303523053083120313F3000C
:100290005422831203137508A322770835237808A4
:1002A00035232F303523043083120313F3005422F7
:1002B000831203137508A3227708352378083523A2
:1002C000C0302623023083120313F300542283121A
:1002D00003137508A32277083523780835233A30AD
:1002E0003523013083120313F300542283120313C6
:1002F0007508A32277083523780835233A3035234B
:10030000003083120313F300542283120313750881
:10031000A3227708352378083523F7212F29831264
:100320000313F40183120313F3011922831203133D
:10033000F30A192283120313F30A192283120313F7
:10034000F30A192283120313F30A192283120313E7
:10035000F30A192283120313F30A192283120313D7
:100360000030F300831203138030F400192283124B
:1003700003130630F300831203131630F40019221E
:10038000831203130530F300831203130230F400C9
:100390001922831203130430F30083120313213054
:1003A000F4001922831203130330F30083120313A2
:1003B0002130F4001922831203130230F300831258
:1003C00003130130F4001922831203130130F300E8
:1003D000831203134530F4001922831203130030F3
:1003E000F300831203135030F40019220800103078
:1003F000F0007A30F1000630F200F00B002AF10B29
:0E040000022AF20BFD29042A00000000080069
:02040E00831653
:1004100003139401183083160313930008308312DA
:100420000313940094168316031311151119162A39
:10043000080083160313111411181C2AD0308312DC
:1004400003139300831603131419242A831603132A
:1004500083160313111B4D2A83120313730883128F
:1004600003139300831603131419342A83160313FA
:1004700083160313111B4D2A83120313740883126E
:1004800003139300831603131419442A83160313CA
:1004900083160313111B4D2A4E2A000083160313E3
:1004A00011151119512A080083160313111411187C
:1004B000572AD030831203139300831603131419A1
:1004C0005F2A8316031383160313111B9C2A8312BE
:1004D0000313730883120313930083160313141971
:1004E0006F2A8316031383160313111B9C2A83168A
:1004F0000313911491187A2AD130831203139300B5
:10050000831603131419822A831603138316031305
:10051000111B9C2A83160313911591198D2A83129E
:100520000313130883120313F500831603139116A4
:100530001116111A992A9D2A00008316031311150A
:100540001119A02A080083120313F600760E0F3942
:10055000303EF7008312031376080F39303EF8005F
:1005600008008316031311141118B42A10308312D3
:1005700003139300831603131419BC2A8316031361
:1005800083160313111BD52A8312031370088312D9
:1005900003139300831603131419CC2A8316031331
:1005A00083160313111BD52AD52A8316031311159D
:1005B0001119D82A08008316031311141118DE2A02
:1005C0001130831203139300831603131419E62AC0
:1005D0008316031383160313111BFF2A83160313B9
:1005E00091159119F12A831203131308831203132F
:1005F000F0008316031391161116111AFD2A8316A3
:10060000031311151119022B0800831288154623B4
:1006100046234623333026234623462332302623DF
:100620004623462328302623462346230C30262300
:10063000462346230630262346234623013026231D
:100640004623462308000130262308000811F6003F
:10065000F0398800881546238811760EF039880015
:10066000881546238811462308000815F7007708E7
:10067000F039043E8800881546238811770EF0393A
:10068000043E880088154623881108001430F500C0
:0E069000FF30F400F40B4A2BF50B482B08004A
:02400E00723FFF
:00000001FF
