:020000040000FA
:1000000034283D0E0F39F03EC000C007E23EC1006B
:10001000323EC3003D080F39C107C107C307E93E9F
:10002000C200C207C2073E0E0F39C207C307C20D86
:10003000C30DC309C30D3E080F39C307C00D0730F8
:10004000BF000A30C203C307031C2228C103C20732
:10005000031C2628C003C107031C2A28BF03C007AE
:10006000031C2E28003408008B0183168501F23012
:10007000860087018801071687158312850186018E
:1000800087018801E723E5240313831605148312EF
:100090000715831606309F008312C5309F00B301F9
:1000A000030133085F21003A031959281525B30AC3
:1000B00051280030C8000030C90062280030C80054
:1000C000C9005D28861C6228060E0F39B900060E8D
:1000D0000F39003A0319CD20060E0F39013A0319E2
:1000E0009320060E0F39033A03195121060E0F39DA
:1000F000043A03190421060E0F39053A0319102199
:10010000060E0F39063A03193921060E0F39083A3F
:1001100003194521060E0F39093A0319552186188E
:100120008F286228080007151F151F1995281E081B
:10013000BD001E08BE00012003253F08CF22152563
:100140004008CF2215254108CF2215254208CF228D
:1001500015254308CF221525F522F52207119328EE
:100160000514C5309F0008008514CD309F0008009D
:100170001F151F19B9281E08BD001E08BE00F52254
:10018000F52208001F151F19C3281E08BD001E08F0
:10019000BE00C710F522F5220800F222B820C220C6
:1001A000B820C220B820C220B820C220F222B30159
:1001B000030133089521003A0319E1281525B30AF4
:1001C000D928EF22B30103013308B921003A0319FA
:1001D000EC281525B30AE4280800F222B301030134
:1001E0003308DB21003A0319F8281525B30AF02853
:1001F000EF22B301030133080922003A031903294E
:100200001525B30AFB280800F222B30103013308C5
:100210003622003A03190F291525B30A07290800C9
:10022000F2220030C800C900B820461CDD23461861
:10023000E123C220471CDD234718E1230130C80019
:10024000C900B820C61CDD23C618E123C220C71C84
:10025000DD23C718E1230230C800C900B820461DBD
:10026000DD234619E123C220471DDD234719E12381
:100270000800F222B301030133086122003A031996
:1002800044291525B30A3C290800F222B3010301D1
:1002900033088122003A031950291525B30A482949
:1002A00008001830062508005D2805238618080078
:1002B0008618080086180800861808005529BA0014
:1002C00001308A003A08683E03188A0A82008207D1
:1002D0005034723465347334733420343134203400
:1002E00074346F342034733474346134723474343D
:1002F000203472346F3462346F3474340034BA0092
:1003000001308A003A08883E03188A0A8200820770
:100310004F347034653472346134743469346E34FB
:1003200067342E342E342E340034BA0001308A0063
:100330003A089E3E03188A0A8200820750347234BB
:1003400065347334733420343234203474346F346D
:10035000203464346934733470346C3461347934E7
:10036000203472346534733475346C3474347334BB
:100370000034BA0001308A003A08C23E03188A0AE3
:1003800082008207503472346534733473342034FD
:100390004134203474346F34203472346F34743404
:1003A00061347434653420347334633472346534A6
:1003B00065346E340034BA0001308A003A08E43EF5
:1003C00003188A0A8200820734343A3420346E34A7
:1003D00075346D3462346534723420346F3466346D
:1003E0002034623469346E3473342C342034353420
:1003F0003A34203473347434693463346B34653480
:100400007234203473347434613474347534733416
:100410000034BA0002308A003A08123E03188A0AF1
:100420008200820736343A342034623469346E34C0
:1004300020346C346F3463346134743469346F3411
:100440006E3473342C34203437343A3420346F34DF
:100450007034653472346134743469346F346E349A
:100460002034743469346D3465340034BA00023099
:100470008A003A083F3E03188A0A82008207343411
:100480002034623469346E347334203469346E3409
:10049000203474346F34743461346C340034BA00F2
:1004A00002308A003A08583E03188A0A82008207FE
:1004B0004234423457344234573457345734423438
:1004C0000034BA0002308A003A086A3E03188A0AE9
:1004D000820082074E346F347434203472346534B1
:1004E000633465346934763469346E346734203467
:1004F00061346E3479347434683469346E346734FA
:100500000034BA0002308A003A088A3E03188A0A88
:1005100082008207543441344B3449344E344734DA
:10052000203449344E3420343534203456344F345A
:100530004C34543453340034BA0002308A003A0840
:10054000A53E03188A0A82008207743461346B3432
:1005500069346E34203469346E3420346C34613440
:100560007234673465342034763461346C347534D5
:1005700065340034BA0002308A003A08C33E0318DA
:100580008A0A8200820773346D3461346C346C34AF
:100590002034763461346C34753465340034BA00F8
:1005A00002308A003A08D83E03188A0A820082077D
:1005B00030343134323433343434353436343734FF
:1005C000383439340034BA0002308A003A08EC3E3C
:1005D00003188A0A82008207423457340034C0303C
:1005E000062508000130062508008830B000BD301F
:1005F000B1000330B200B00BFE2AB10B002BB20BDE
:10060000FB2A022B000000000800013006253230D2
:10061000152530301525063083120313F3003424DA
:100620008312031375088324770815257808152588
:100630002F301525053083120313F3003424831261
:1006400003137508832477081525780815252F309E
:100650001525043083120313F3003424831203138B
:10066000750883247708152578081525C0300625D8
:10067000023083120313F30034248312031375082A
:10068000832477081525780815253A30152501307B
:1006900083120313F3003424831203137508832495
:1006A00077081525780815253A301525003083126E
:1006B0000313F3003424831203137508832477088B
:1006C000152578081525CD23080083120313F4019E
:1006D00083120313F301F92383120313F30AF9239B
:1006E00083120313F30AF92383120313F30AF92382
:1006F00083120313F30AF92383120313F30AF92372
:1007000083120313F30AF923831203130030F30057
:10071000831203138030F400F9238312031306308D
:10072000F300831203131630F400F923831203132A
:100730000530F300831203130230F400F92383120F
:1007400003130430F300831203131630F400F9236B
:10075000831203130330F300831203132130F400D8
:10076000F923831203130230F300831203130130C1
:10077000F400F923831203130130F30083120313EF
:100780003530F400F923831203130030F300831291
:1007900003135030F400F92308001030B0007A3011
:1007A000B1000630B200B00BD62BB10BD82BB20B78
:1007B000D32BDA2B0000000008000030E3221525BF
:0A07C00008000130E32215250800AF
:0407CA0000340034C3
:0207CE00831690
:1007D0000313940118308316031393000830831217
:1007E0000313940094168316031311151119F62B95
:1007F00008008316031311141118FC2BD030831238
:1008000003139300831603131419042C8316031384
:1008100083160313111B2D2C8312031373088312E9
:1008200003139300831603131419142C8316031354
:1008300083160313111B2D2C8312031374088312C8
:1008400003139300831603131419242C8316031324
:1008500083160313111B2D2C2E2C0000831603135B
:1008600011151119312C08008316031311141118D6
:10087000372CD030831203139300831603131419FB
:100880003F2C8316031383160313111B7C2C831236
:1008900003137308831203139300831603131419AD
:1008A0004F2C8316031383160313111B7C2C831602
:1008B0000313911491185A2CD1308312031393000F
:1008C000831603131419622C831603138316031360
:1008D000111B7C2C83160313911591196D2C831217
:1008E0000313130883120313F500831603139116E1
:1008F0001116111A792C7D2C000083160313111583
:100900001119802C080083120313F600760E0F399C
:10091000303EF7008312031376080F39303EF8009B
:1009200008008316031311141118942C103083122D
:10093000031393008316031314199C2C83160313BB
:1009400083160313111BB52C831203137008831233
:1009500003139300831603131419AC2C831603138B
:1009600083160313111BB52CB52C83160313111515
:100970001119B82C08008316031311141118BE2C7A
:100980001130831203139300831603131419C62C1A
:100990008316031383160313111BDF2C8316031313
:1009A00091159119D12C8312031313088312031389
:1009B000F0008316031391161116111ADD2C8316FD
:1009C000031311151119E22C08008312881526252E
:1009D00026252625333006252625262532300625D0
:1009E0002625262528300625262526250C300625F1
:1009F000262526250630062526252625013006250E
:100A00002625262508000130062508000811F300D8
:100A1000F0398800881526258811730EF039880072
:100A2000881526258811262508000815F400740865
:100A3000F039043E8800881526258811740EF03997
:100A4000043E880088152625881108001430F2001D
:0E0A5000FF30F100F10B2A2DF20B282D0800CB
:02400E00723FFF
:00000001FF
