:020000040000FA
:1000000034283D0E0F39F03EC000C007E23EC1006B
:10001000323EC3003D080F39C107C107C307E93E9F
:10002000C200C207C2073E0E0F39C207C307C20D86
:10003000C30DC309C30D3E080F39C307C00D0730F8
:10004000BF000A30C203C307031C2228C103C20732
:10005000031C2628C003C107031C2A28BF03C007AE
:10006000031C2E28003408008B0183168501F23012
:10007000860087018801071687158312850186018E
:1000800087018801E923E7240313831605148312EB
:100090000715831606309F008312C5309F00B301F9
:1000A000030133086121003A031959281725B30ABF
:1000B00051280030C8000030C90062280030C80054
:1000C000C9005D28861C6228060E0F39B900060E8D
:1000D0000F39003A0319CF20060E0F39013A0319E0
:1000E0001221060E0F39033A03195321060E0F3958
:1000F000043A03190621060E0F39053A0319122195
:10010000060E0F39063A03193B21060E0F39083A3D
:1001100003194721060E0F39093A0319572186188A
:100120008F286228080007151F151F1995281E081B
:10013000BD001E08BE000330BF00012005253F089A
:10014000D12217254008D12217254108D122172591
:100150004208D12217254308D1221725F722F7227A
:10016000071108000514C5309F0008008514CD3024
:100170009F0008001F151F19BB281E08BD001E0880
:10018000BE00F722F72208001F151F19C5281E08F8
:10019000BD001E08BE00C710F722F7220800F42297
:1001A000BA20C420BA20C420BA20C420BA20C42057
:1001B000F422B301030133089721003A0319E3281D
:1001C0001725B30ADB28F122B30103013308BB2151
:1001D000003A0319EE281725B30AE6280800F4228E
:1001E000B30103013308DD21003A0319FA2817256A
:1001F000B30AF228F122B301030133080B22003ABB
:10020000031905291725B30AFD280800F422B301B4
:10021000030133083822003A031911291725B30ABC
:1002200009290800F4220030C800C900BA20461C81
:10023000DF234618E323C420471CDF234718E323AA
:100240000130C800C900BA20C61CDF23C618E3234A
:10025000C420C71CDF23C718E3230230C800C9002D
:10026000BA20461DDF234619E323C420471DDF23A0
:100270004719E3230800F422B30103013308632282
:10028000003A031946291725B30A3E290800F4222B
:10029000B301030133088322003A031952291725B9
:1002A000B30A4A2908001830082508005D280723EA
:1002B00086180800861808008618080086180800A6
:1002C0005729BA0001308A003A086A3E03188A0AA0
:1002D00082008207503472346534733473342034AE
:1002E0003134203474346F342034733474346134D2
:1002F00072347434203472346F3462346F34743432
:100300000034BA0001308A003A088A3E03188A0A8B
:10031000820082074F34703465347234613474342F
:1003200069346E3467342E342E342E340034BA00DF
:1003300001308A003A08A03E03188A0A8200820728
:10034000503472346534733473342034323420348E
:1003500074346F34203464346934733470346C34DE
:1003600061347934203472346534733475346C34C8
:10037000743473340034BA0001308A003A08C43E41
:1003800003188A0A82008207503472346534733449
:10039000733420344134203474346F342034723454
:1003A0006F3474346134743465342034733463349A
:1003B0007234653465346E340034BA0001308A001A
:1003C0003A08E63E03188A0A8200820734343A3437
:1003D00020346E3475346D346234653472342034B4
:1003E0006F3466342034623469346E3473342C34A0
:1003F000203435343A3420347334743469346334FB
:100400006B3465347234203473347434613474342E
:10041000753473340034BA0002308A003A08143E4E
:1004200003188A0A8200820736343A342034623450
:1004300069346E3420346C346F3463346134743412
:1004400069346F346E3473342C34203437343A3496
:1004500020346F34703465347234613474346934E8
:100460006F346E342034743469346D346534003440
:10047000BA0002308A003A08413E03188A0A820014
:10048000820734342034623469346E347334203457
:1004900069346E34203474346F34743461346C34A1
:1004A0000034BA0002308A003A085A3E03188A0A19
:1004B000820082074234423457344234573457342E
:1004C000573442340034BA0002308A003A086C3E95
:1004D00003188A0A820082074E346F347434203441
:1004E00072346534633465346934763469346E3417
:1004F0006734203461346E34793474346834693448
:100500006E3467340034BA0002308A003A088C3EF8
:1005100003188A0A82008207543441344B34493428
:100520004E344734203449344E342034353420346A
:1005300056344F344C34543453340034BA000230FF
:100540008A003A08A73E03188A0A82008207743498
:1005500061346B3469346E34203469346E34203441
:100560006C346134723467346534203476346134E9
:100570006C34753465340034BA0002308A003A08AD
:10058000C53E03188A0A8200820773346D346134D1
:100590006C346C342034763461346C3475346534A6
:1005A0000034BA0002308A003A08DA3E03188A0A98
:1005B00082008207303431343234333434343534C9
:1005C00036343734383439340034BA0002308A00D3
:1005D0003A08EE3E03188A0A8200820742345734F2
:1005E0000034C03008250800013008250800883094
:1005F000B000BD30B1000330B200B00B002BB10B26
:10060000022BB20BFD2A042B000000000800013071
:100610000825323017253030172506308312031392
:10062000F3003624831203137508852477081725F1
:10063000780817252F301725053083120313F30090
:100640003624831203137508852477081725780844
:1006500017252F301725043083120313F300362497
:100660008312031375088524770817257808172542
:10067000C0300825023083120313F300362483129E
:1006800003137508852477081725780817253A304D
:100690001725013083120313F3003624831203134A
:1006A0007508852477081725780817253A30172507
:1006B000003083120313F3003624831203137508EA
:1006C00085247708172578081725CF23080083127B
:1006D0000313F40183120313F301FB2383120313A7
:1006E000F30AFB2383120313F30AFB23831203137E
:1006F000F30AFB2383120313F30AFB23831203136E
:10070000F30AFB2383120313F30AFB23831203135D
:100710000030F300831203138030F400FB238312B4
:1007200003130630F300831203131630F400FB2387
:10073000831203130530F300831203130230F40015
:10074000FB23831203130430F300831203131630C8
:10075000F400FB23831203130330F300831203130B
:100760002130F400FB23831203130230F3008312C1
:1007700003130130F400FB23831203130130F30051
:10078000831203133530F400FB238312031300306C
:10079000F300831203135030F400FB2308001030E1
:1007A000B0007A30B1000630B200B00BD82BB10BDC
:1007B000DA2BB20BD52BDC2B000000000800003038
:0E07C000E522172508000130E5221725080064
:0207CE000034F5
:0207D0000034F3
:0E07D20083160313940118308316031393004B
:1007E0000830831203139400941683160313111513
:1007F0001119F82B08008316031311141118FE2B7E
:10080000D030831203139300831603131419062C9C
:100810008316031383160313111B2F2C8312031348
:100820007308831203139300831603131419162CF1
:100830008316031383160313111B2F2C8312031328
:100840007408831203139300831603131419262CC0
:100850008316031383160313111B2F2C302C000057
:100860008316031311151119332C08008316031373
:1008700011141118392CD0308312031393008316EE
:1008800003131419412C8316031383160313111B2E
:100890007E2C8312031373088312031393008316B1
:1008A00003131419512C8316031383160313111BFE
:1008B0007E2C83160313911491185C2CD130831273
:1008C00003139300831603131419642C8316031364
:1008D00083160313111B7E2C831603139115911994
:1008E0006F2C83120313130883120313F50083166E
:1008F000031391161116111A7B2C7F2C00008316FE
:10090000031311151119822C080083120313F6002A
:10091000760E0F39303EF7008312031376080F3935
:10092000303EF80008008316031311141118962C9A
:1009300010308312031393008316031314199E2C93
:100940008316031383160313111BB72C831203138F
:100950007008831203139300831603131419AE2C2B
:100960008316031383160313111BB72CB72C83169E
:10097000031311151119BA2C08008316031311144F
:100980001118C02C11308312031393008316031324
:100990001419C82C8316031383160313111BE12C9F
:1009A0008316031391159119D32C83120313130883
:1009B00083120313F0008316031391161116111AF4
:1009C000DF2C8316031311151119E42C0800831270
:1009D0008815282528252825333008252825282569
:1009E00032300825282528252830082528252825BF
:1009F0000C300825282528250630082528252825F7
:100A00000130082528252825080001300825080080
:100A10000811F300F0398800881528258811730E15
:100A2000F039880088152825881128250800081520
:100A3000F4007408F039043E8800881528258811D0
:100A4000740EF039043E88008815282588110800A6
:100A50001430F200FF30F100F10B2C2DF20B2A2D97
:020A600008008C
:02400E00723FFF
:00000001FF
