:020000040000FA
:1000000001288B0183168501F23086008701880163
:10001000831285018601870188012720861C0E280E
:10002000060E0F395020861813280E288207313407
:100030003234333441343434353436344234373462
:100040003834393443342A3430342334443483123A
:1000500088156520652065200811303060206520F6
:1000600065205520652055205520203060206520D2
:100070006520552028304920652065200F30492013
:100080006520652006304920652065205020081530
:100090000800F00060205520700E602055200800F8
:1000A00008110130492065200800FF30F100F10BF4
:1000B00057288811FF30F100F10B5C2888150800E3
:1000C000F03988040F38880508001430F200FF303A
:0C00D000F100F10B6928F20B6728080012
:0400DC0000340034B8
:02400E00723FFF
:00000001FF
