:020000040000FA
:10000000442845226C08B4244A26D201D1016A084A
:10001000D20011205608B4244A265708B4244A2690
:100020000800510E0F39F03ED400D407E23ED5004F
:10003000323ED70051080F39D507D507D707E93E1B
:10004000D600D607D607520E0F39D607D707D60DDA
:10005000D70DD709D70D52080F39D707D40D073060
:10006000D3000A30D603D707031C3228D503D6079E
:10007000031C3628D403D507031C3A28D303D4071E
:10008000031C3E28003408008B018316FF308500D6
:10009000FE308600870188018901071687158312C3
:1000A000850186018701880189011C2583120313BC
:1000B000F40183120313F3012E2583120313F30AB1
:1000C0002E2583120313F30A2E2583120313F30A3A
:1000D0002E2583120313F30A2E2583120313F30A2A
:1000E0002E2583120313F30A2E250B241A2603133D
:1000F000831606309F008312B301030133084024A6
:10010000003A031986284A26B30A7E28A623B3019B
:10011000030133087224003A031991284A26B30ACE
:100120008928E001ED01D6230814621463146414D5
:1001300065146614671468146914F101F201F3017F
:10014000F401F501F6018712071707108717071545
:10015000871406118611861CAB28060E0F39B900CC
:10016000060E0F39003A03195421060E0F39013AD1
:1001700003193023060E0F39023A03193423060EF1
:100180000F39033A03197422060E0F39043A031982
:100190008D21060E0F39053A03190F22060E0F396D
:1001A000063A03192A22060E0F39073A03190B24BF
:1001B000060E0F39083A03199D22060E0F39093A27
:1001C00003192823060E0F390A3A03198421060E53
:1001D0000F390C3A03194023060E0F390D3A031953
:1001E0005223060E0F390E3A03195C23060E0F39FF
:1001F0000F3A03197F238618FB28AB2808008712C3
:100200000713AC23061901293724061D04290717F3
:10021000AC23AC23AC23AC235C23AC2386190D297F
:100220003724861D10295C230800871627242724DD
:100230002724272427242A2208308F0203181B2969
:100240002A2206308F02031C2029282137217B29EE
:1002500087127F23AC23861D2B297F23AC23AC235D
:100260008713AC23061D322987178716080006144A
:1002700087128E2245228A110A1245226A08ED0051
:100280006D08B90001206A22A9233023302382227D
:10029000AC23AC23AC23AC23A923342334238822FE
:1002A000AC23AC23061008000F222A228716EF0188
:1002B0000F220F308F0203186429EF0A03306F02F8
:1002C000031D5829FF201521EF0187162A22083027
:1002D0008F0203187229EF0A372403306F02031DBF
:1002E000652973217B29BC232A2206308F02031C37
:1002F0007329372106100730600203198D29010880
:10030000480203198D2956290713AC23061985299C
:100310003724061D8829071708008712FF200714B5
:10032000C9230710A923B301030133089024003A1D
:1003300003199D294A26B30A9529A623DE23A0295D
:10034000861CA029060E0F39B900060E0F39003A97
:1003500003199D22060E0F39013A03199822060E41
:100360000F39023A03190023060E0F39033A031915
:100370007422060E0F39043A0319DE238618BE29AB
:10038000A0298D29A1231F151F19C4291E08D100DA
:100390001E08D200A92311205308B4244A26540869
:1003A000B4244A265508B4244A265608B4244A26BA
:1003B0005708B4244A2608008313423084000030D2
:1003C000600384075530D1020030031801308000EB
:1003D00008001F151F19EA291E08D1001E08D200A7
:1003E000A92311205308B4244A265408B4244A26C9
:1003F0005508B4244A265608B4244A265708B4247B
:100400004A260800831349308400003060038407C3
:100410000330D102003003180130800008008F0142
:100420008E0108103724081437240810051D162AD9
:1004300010140519192A1010A9230F08D1000E084D
:10044000D20011205308B4244A265408B4244A2662
:10045000A92308008F018E018810372488143724BF
:100460008810851D312A10148519342A1010A923EB
:100470000F08D1000E08D20011205308B4244A26D8
:100480005408B4244A26A9230800EA01EB01EC0130
:100490003908003C0319080005306A07EA000930F2
:1004A0006B07EB00B9030A306B020318622A6A0873
:1004B000F000643070020318662A3908003C031DFE
:1004C0004C2A0800EA0A0A30EB025D2AEC0A643082
:1004D000EA025D2A83133B30840000306003840706
:1004E0000108B9008000080018303B260800AB283E
:1004F000DE2386180800861808008618080086186B
:100500000800782A8312C5309F00C321DC2108002F
:100510008312CD309F00E92102220800A923E00ABE
:100520006008B4244A260830600203198D290800A7
:10053000A9236008B4244A260800A9230030DF005C
:100540008313413084006008DE00B30103013308E7
:10055000D424003A0319AF2A4A26B30AA72A840AE8
:10056000DF0A5F08B4244A26B30103013308FC24E0
:10057000003A0319BE2A4A26B30AB62A0008000820
:10058000C8244A26B30103013308F124003A0319B1
:10059000CC2A4A26B30AC42ADE0BAF2AA62300308F
:1005A000DF008313483084006008DE00B3010301DC
:1005B0003308E324003A0319E02A4A26B30AD82A6A
:1005C000840ADF0A5F08B4244A26B3010301330812
:1005D000FC24003A0319EF2A4A26B30AE72A000846
:1005E0000008C8244A26B30103013308F124003A65
:1005F0000319FD2A4A26B30AF52ADE0BE02A080071
:10060000A9230030DF0083133A3084006008DE0045
:10061000B301030133080725003A0319122B4A26B8
:10062000B30A0A2BA623840ADF0A5F08B4244A26E9
:100630000008B9000120B30103013308F124003A96
:100640000319252B4A26B30A1D2BDE0B132B08009A
:1006500062182D2B061462140800061062100800A0
:10066000C5309F00C3210800CD309F00C321080082
:1006700063183D2B87126314080087166310080067
:100680006418452B071364140800061D0717071785
:100690006410080066184F2B071466140800071032
:1006A000661008006718572B871767140800061D87
:1006B00007178713671008006818612B97016814E3
:1006C00008008316031307111708F0390C38970038
:1006D0001208D000C3308316031392008312031351
:1006E0009214950112179216121692159716171654
:1006F00060309500971517151215681008006918D5
:10070000842B9D01691408008316031387101D08AC
:10071000F0390C389D00C330831603139200831206
:10072000031392149B0112179216121692159D161E
:100730001D1660309B009D151D1512158312691042
:10074000080097019D01500892000800C0303B2628
:10075000080001303B2608008830B000BD30B100F1
:100760000330B200B00BB52BB10BB72BB20BB22BD1
:10077000B92B000000000800D130B5004F30B600A2
:100780000230EE00B50BC52BB60BC72BEE0BC22B00
:100790000800DA30B5006330B600AF30EE00B50BBC
:1007A000D22BB60BD42BEE0BCF2B080083160313E2
:1007B0002830810083120313810108000230831264
:1007C0000313F3006925831203137508B82577080E
:1007D0004A2678084A263A304A2601308312031303
:1007E000F3006925831203137508B82577084A2694
:1007F00078084A263A304A26003083120313F30061
:100800006925831203137508B82577084A267808E6
:100810004A2627240800831203130230F3008312B0
:1008200003130030F4002E25831203130130F3006C
:10083000831203130030F4002E25831203130030BB
:10084000F300831203130030F4002E25080010304B
:10085000B0007A30B1000630B200B00B302CB10BD2
:10086000322CB20B2D2C342C000000000800143068
:10087000B600FF30B500B50B3B2CB60B392C080089
:10088000BA0004308A003A08493E03188A0A8200F6
:10089000820731343A34533469346D3475346C34EE
:1008A0006134743469346F346E347C3423342F34BF
:1008B00044343A34503457344D347C342A342F3451
:1008C00030343A3453347434643431342634533449
:1008D0007434643432347C3433343A3442342F3414
:1008E00057340034BA0004308A003A087B3E0318BB
:1008F0008A0A82008207353444346934733474348C
:1009000061346E3463346534203436344C346F349F
:1009100063346134743469346F346E347334003446
:10092000BA0004308A003A08993E03188A0A820005
:100930008207313453347434693463346B3465342E
:100940007234733420343234423469346E34733444
:10095000203433344C346F34633461347434693448
:100960006F346E3473340034BA0004308A003A08AD
:10097000BD3E03188A0A8200820730343134323493
:10098000333434343534363437343834393400344D
:10099000BA0004308A003A08D13E03188A0A82005D
:1009A0008207423457340034BA0004308A003A08CF
:1009B000DD3E03188A0A82008207463472346F349F
:1009C0006E3474340034BA0004308A003A08EC3EC5
:1009D00003188A0A820082074234613463346B341C
:1009E0000034BA0004308A003A08FA3E03188A0A32
:1009F0008200820720340034BA0005308A003A08A9
:100A0000053E03188A0A820082073A340034BA008D
:100A100005308A003A08103E03188A0A82008207CD
:100A200044346934733474342034283463346D347A
:040A30002934003431
:040A34000034003456
:080A380083160313940118302A
:100A40008316031393000830831203139400941643
:100A500083160313111511192B2D08008316031388
:100A600011141118312DD030831203139300831603
:100A700003131419392D8316031383160313111B43
:100A8000622D8312031373088312031393008316DA
:100A900003131419492D8316031383160313111B13
:100AA000622D8312031374088312031393008316B9
:100AB00003131419592D8316031383160313111BE3
:100AC000622D632D00008316031311151119662D75
:100AD000080083160313111411186C2DD0308312E3
:100AE00003139300831603131419742D8316031331
:100AF00083160313111BB12D831203137308831282
:100B000003139300831603131419842D8316031300
:100B100083160313111BB12D83160313911491181F
:100B20008F2DD130831203139300831603131419EE
:100B3000972D8316031383160313111BB12D8316F0
:100B4000031391159119A22D831203131308831215
:100B50000313F5008316031391161116111AAE2D07
:100B6000B22D00008316031311151119B52D0800BD
:100B700083120313F600760E0F39303EF70083120E
:100B8000031376080F39303EF8000800831603136C
:100B900011141118C92D10308312031393008316FA
:100BA00003131419D12D8316031383160313111B7A
:100BB000EA2D831203137008831203139300831624
:100BC00003131419E12D8316031383160313111B4A
:100BD000EA2DEA2D8316031311151119ED2D0800C6
:100BE0008316031311141118F32D113083120313FC
:100BF0009300831603131419FB2D83160313831616
:100C00000313111B142E8316031391159119062E2D
:100C100083120313130883120313F00083160313C4
:100C200091161116111A122E83160313111511198C
:100C3000172E0800831288155B265B265B2633304F
:100C40003B265B265B2632303B265B265B26283024
:100C50003B265B265B260C303B265B265B2606305C
:100C60003B265B265B2601303B265B265B26080085
:100C700001303B2608000811F300F0398800881580
:100C80005B268811730EF039880088155B26881161
:100C90005B2608000815F4007408F039043E88004B
:100CA00088155B268811740EF039043E880088157B
:100CB0005B26881108001430F200FF30F100F10BC0
:080CC0005F2EF20B5D2E08000F
:02400E00723FFF
:00000001FF
