:020000040000FA
:1000000044281E226C08CC246226D201D1016A0841
:10001000D20011205608CC2462265708CC24622630
:100020000800510E0F39F03ED400D407E23ED5004F
:10003000323ED70051080F39D507D507D707E93E1B
:10004000D600D607D607520E0F39D607D707D60DDA
:10005000D70DD709D70D52080F39D707D40D073060
:10006000D3000A30D603D707031C3228D503D6079E
:10007000031C3628D403D507031C3A28D303D4071E
:10008000031C3E28003408008B018316FF308500D6
:10009000FE308600870188018901071687158312C3
:1000A00085018601870188018901342532260313E1
:1000B000831606309F008312B301030133085C24CA
:1000C000003A031966286226B30A5E289223B30118
:1000D000030133088E24003A031971286226B30AFB
:1000E0006928E001ED01BF2308146214631464144D
:1000F00065146614671468146914871207170710CB
:1001000087170715871406118611861C8528060E89
:100110000F39B900060E0F39003A03192121060ED6
:100120000F39013A03191C23060E0F39023A03193D
:100130002023060E0F39033A03194D22060E0F39FC
:10014000043A03192521060E0F39053A0319E8214F
:10015000060E0F39063A03190322060E0F39073A25
:1001600003196722060E0F39083A03197522060E85
:100170000F39093A03191423060E0F390A3A0319E5
:100180004A21060E0F390C3A03192C23060E0F399B
:100190000D3A03193E23060E0F390E3A0319482370
:1001A000060E0F390F3A03196B238618D5288528B8
:1001B0000800871207139823061DDC2807179823C9
:1001C000982398239823482353245324861DE628F4
:1001D00048238716432443244324432443244324AD
:1001E000E8210F308F02031CEE288712F8203129F6
:1001F0006B239823861DFA286B2398239823871353
:100200009823061D012987170800871267221E22DE
:100210008A110A121E226A08ED006D08B900012039
:10022000432295231C231C235B2298239823982385
:1002300098239523202320236122982398230614B2
:100240000800E82103228716EF01E8210F308F0212
:1002500003183129EF0A03306F02031D2529D92025
:10026000EF01032208308F0203183D29EF0A5324BF
:1002700003306F02031D31293E2145290322063038
:100280008F02031C3E29052106100230600203196B
:10029000572923294823A8239823861D4D2948231D
:1002A0006B23A8239823861D53296B234A29952362
:1002B000B30103013308AC24003A03196229622612
:1002C000B30A5A299223B301030133088E24003A5A
:1002D00003196D296226B30A652987126F29861CC6
:1002E0006F29060E0F39B900060E0F39003A0319AF
:1002F000C723060E0F39023A03197522060E0F396D
:10030000033A03194D22060E0F39043A03197122DC
:10031000060E0F39053A03190A23060E0F39063A5D
:100320000319D822060E0F39073A031967228618D7
:1003300097296F2957298D231F151F199D291E08DD
:10034000D1001E08D200952311205308CC24622628
:100350005408CC2462265508CC2462265608CC24A6
:1003600062265708CC24622608008313423084009A
:100370000030600384075530D1020030031801308B
:10038000800008001F151F19C3291E08D1001E0870
:10039000D200952311205308CC2462265408CC2483
:1003A00062265508CC2462265608CC2462265708BB
:1003B000CC24622608008313493084000030600397
:1003C00084070330D1020030031801308000080098
:1003D0008F018E0108105324081453240810051DA2
:1003E000EF2910140519F229101095230F08D100D8
:1003F0000E08D20011205308CC2462265408CC24C5
:100400006226952308008F018E01881053248814DA
:1004100053248810851D0A2A101485190D2A1010DE
:1004200095230F08D1000E08D20011205308CC24C8
:1004300062265408CC24622695230800EA01EB01C9
:10044000EC013908003C0319080002306A07EA0091
:1004500000306B07EB00B9030A306B0203183B2A2C
:100460006A08F0006430700203183F2A3908003C23
:10047000031D252A0800EA0A0A30EB02362AEC0A94
:100480006430EA02362A83133B3084000030600374
:1004900084070108B90080000800183053260800BE
:1004A0008528C723861808008618080086180800C3
:1004B00086180800512A8312C5309F009C21B5215F
:1004C00008008312CD309F00C221DB210800952354
:1004D000E00A6008CC24622607306002031957291D
:1004E00008006008CC246226080095230030DF0055
:1004F0008313413084006008DE00B3010301330838
:10050000EC24003A0319872A6226B30A7F2A840A58
:10051000DF0A5F08CC246226B301030133081425E7
:10052000003A0319962A6226B30A8E2A00080008A8
:10053000E0246226B301030133080925003A0319B8
:10054000A42A6226B30A9C2ADE0B872A9223003053
:10055000DF008313483084006008DE00B30103012C
:100560003308FB24003A0319B82A6226B30AB02ADA
:10057000840ADF0A5F08CC246226B3010301330832
:100580001425003A0319C72A6226B30ABF2A0008B5
:100590000008E0246226B301030133080925003A6C
:1005A0000319D52A6226B30ACD2ADE0BB82A080021
:1005B00095230030DF0083133A3084006008DE00AA
:1005C000B301030133081F25003A0319EA2A622602
:1005D000B30AE22A9223840ADF0A5F08CC24622647
:1005E000B301030133081425003A0319FA2A6226DD
:1005F000B30AF22A0008B9000120B301030133084D
:100600000925003A0319072B6226B30AFF2ADE0BDD
:10061000EB2A08001E228A110A121E226A08ED0027
:100620006D08B900012008006218192B0614621425
:100630000800061062100800C5309F009C210800C9
:10064000CD309F009C2108006318292B871263146A
:1006500008008716631008006418312B0713641410
:100660000800061D071707176410080066183B2BC3
:100670000714661408000710661008006718432B5B
:10068000871767140800061D0717871367100800EF
:1006900068184D2B9701681408008316031307117F
:1006A0001708F0390C3897001208D000C3308316B1
:1006B00003139200831203139214950112179216DA
:1006C0001216921597161716603095009715171584
:1006D0001215681008006918702B9D016914080034
:1006E0008316031387101D08F0390C389D00C330A2
:1006F0008316031392008312031392149B011217A3
:100700009216121692159D161D1660309B009D15AF
:100710001D15121583126910080097019D015008DC
:1007200092000800C030532608000130532608000C
:100730008830B000BD30B1000330B200B00BA12B47
:10074000B10BA32BB20B9E2BA52B000000000800C1
:10075000D130B5004F30B6000230EE00B50BB12BF2
:10076000B60BB32BEE0BAE2B08004F30B500C430E8
:10077000B600B50BBC2BB60BAE2BBE2B08008316F8
:100780000313283081008312031381010800013014
:10079000532632306226303062260630831203132D
:1007A000F3008125831203137508D025770862268C
:1007B000780862262F306226053083120313F30077
:1007C0008125831203137508D025770862267808DF
:1007D00062262F306226043083120313F300812532
:1007E000831203137508D0257708622678086226DD
:1007F000C0305326023083120313F3008125831285
:1008000003137508D02577086226780862263A30E7
:100810006226013083120313F30081258312031330
:100820007508D02577086226780862263A30622655
:10083000003083120313F30081258312031375081C
:10084000D0257708622678086226432408008312A0
:1008500003130230F300831203130030F400462523
:10086000831203130130F300831203130030F400EA
:100870004625831203130030F30083120313003064
:10088000F400462508001030B0007A30B100063080
:10089000B200B00B4C2CB10B4E2CB20B492C502C8F
:1008A0000000000008001430B600FF30B500B50BA2
:1008B000572CB60B552C0800BA0004308A003A08B1
:1008C000653E03188A0A8200820731343A34533471
:1008D00069346D3475346C346134743469346F3414
:1008E0006E347C3423342F3444343A345034573407
:1008F0004D347C342A342F3430343A345334743405
:1009000064343134263453347434643432347C34B3
:1009100033343A3442342F3457340034BA0004307C
:100920008A003A08973E03188A0A82008207353403
:10093000443469347334743461346E3463346534EC
:10094000203436344C346F34633461347434693455
:100950006F346E3473340034BA0004308A003A08BD
:10096000B53E03188A0A8200820731345434693450
:100970006D3465342034333453347434693463341F
:100980006B34653472347334203434342334423459
:1009900069346E3473340034BA0004308A003A0883
:1009A000D53E03188A0A820082073034313432344B
:1009B000333434343534363437343834393400341D
:1009C000BA0004308A003A08E93E03188A0A820015
:1009D0008207423457340034BA0004308A003A089F
:1009E000F53E03188A0A82008207463472346F3457
:1009F0006E3474340034BA0005308A003A08043E7C
:100A000003188A0A820082074234613463346B34EB
:100A10000034BA0005308A003A08123E03188A0AE8
:100A20008200820720340034BA0005308A003A0878
:100A30001D3E03188A0A820082073A340034BA0045
:100A400005308A003A08283E03188A0A8200820785
:100A500044346934733474342034283463346D344A
:040A60002934003401
:040A64000034003426
:080A68008316031394011830FA
:100A70008316031393000830831203139400941613
:100A80008316031311151119432D08008316031340
:100A900011141118492DD0308312031393008316BB
:100AA00003131419512D8316031383160313111BFB
:100AB0007A2D831203137308831203139300831692
:100AC00003131419612D8316031383160313111BCB
:100AD0007A2D831203137408831203139300831671
:100AE00003131419712D8316031383160313111B9B
:100AF0007A2D7B2D000083160313111511197E2DFD
:100B000008008316031311141118842DD03083129A
:100B1000031393008316031314198C2D83160313E8
:100B200083160313111BC92D831203137308831239
:100B3000031393008316031314199C2D83160313B8
:100B400083160313111BC92D8316031391149118D7
:100B5000A72DD130831203139300831603131419A6
:100B6000AF2D8316031383160313111BC92D831690
:100B7000031391159119BA2D8312031313088312CD
:100B80000313F5008316031391161116111AC62DBF
:100B9000CA2D00008316031311151119CD2D08005D
:100BA00083120313F600760E0F39303EF7008312DE
:100BB000031376080F39303EF8000800831603133C
:100BC00011141118E12D10308312031393008316B2
:100BD00003131419E92D8316031383160313111B32
:100BE000022E8312031370088312031393008316DB
:100BF00003131419F92D8316031383160313111B02
:100C0000022E022E8316031311151119052E08004A
:100C100083160313111411180B2E113083120313B2
:100C20009300831603131419132E831603138316CC
:100C30000313111B2C2E83160313911591191E2ECD
:100C400083120313130883120313F0008316031394
:100C500091161116111A2A2E831603131115111944
:100C60002F2E0800831288157326732673263330BF
:100C70005326732673263230532673267326283064
:100C80005326732673260C3053267326732606309C
:100C900053267326732601305326732673260800C5
:100CA0000130532608000811F300F0398800881538
:100CB00073268811730EF039880088157326881101
:100CC000732608000815F4007408F039043E880003
:100CD000881573268811740EF039043E8800881533
:100CE0007326881108001430F200FF30F100F10B78
:080CF000772EF20B752E0800AF
:02400E00723FFF
:00000001FF
