:020000040000FA
:10000000442845226C08C0245626D201D1016A0832
:10001000D20011205608C02456265708C024562660
:100020000800510E0F39F03ED400D407E23ED5004F
:10003000323ED70051080F39D507D507D707E93E1B
:10004000D600D607D607520E0F39D607D707D60DDA
:10005000D70DD709D70D52080F39D707D40D073060
:10006000D3000A30D603D707031C3228D503D6079E
:10007000031C3628D403D507031C3A28D303D4071E
:10008000031C3E28003408008B018316FF308500D6
:10009000FE308600870188018901071687158312C3
:1000A00085018601870188018901282583120313B0
:1000B000F40183120313F3013A2583120313F30AA5
:1000C0003A2583120313F30A3A2583120313F30A22
:1000D0003A2583120313F30A3A2583120313F30A12
:1000E0003A2583120313F30A3A251724262603130D
:1000F000831606309F008312B301030133084C249A
:10010000003A031986285626B30A7E28B023B30185
:10011000030133087E24003A031991285626B30AB6
:100120008928E001ED01E2230814621463146414C9
:1001300065146614671468146914F101F201F3017F
:10014000F401F501F6018712071707108717071545
:10015000871406118611861CAB28060E0F39B900CC
:10016000060E0F39003A03195421060E0F39013AD1
:1001700003193A23060E0F39023A03193E23060EDD
:100180000F39033A03197422060E0F39043A031982
:100190008D21060E0F39053A03190F22060E0F396D
:1001A000063A03192A22060E0F39073A03191724B3
:1001B000060E0F39083A03199D22060E0F39093A27
:1001C00003193223060E0F390A3A03198421060E49
:1001D0000F390C3A03194A23060E0F390D3A031949
:1001E0005C23060E0F390E3A03196623060E0F39EB
:1001F0000F3A031989238618FB28AB2808008712B9
:100200000713B623061901294324061D04290717DD
:10021000B623B623B623B6236623B62386190D2943
:100220004324861D102966230800871633243324AF
:100230003324332433242A2208308F0203181B2945
:100240002A2206308F02031C2029282137217B29EE
:1002500087128923B623861D2B298923B623B6232B
:100260008713B623061D3229871787160800061440
:1002700087128E2245228A110A1245226A08ED0051
:100280006D08B90001206A22B3233A233A2382225F
:10029000B623B623B623B623B3233E233E238822B8
:1002A000B623B623061008000F222A228716EF0174
:1002B0000F220F308F0203186429EF0A03306F02F8
:1002C000031D5829FF201521EF0187162A22083027
:1002D0008F0203187229EF0A432403306F02031DB3
:1002E000652973217B29C6232A2206308F02031C2D
:1002F0007329372106100730600203198D29010880
:10030000480203198D2956290713B6230619852992
:100310004324061D8829071708008712FF200714A9
:10032000D3230710B323B301030133089C24003AFD
:1003300003199D295626B30A9529B023EA23A0293B
:10034000861CA029060E0F39B900060E0F39003A97
:1003500003199D22060E0F39013A03199822060E41
:100360000F39023A03190023060E0F39033A031915
:100370007422060E0F39043A0319EA238618BE299F
:10038000A0298D29AB231F151F19C4291E08D100D0
:100390001E08D200B32311205308C0245626540847
:1003A000C02456265508C02456265608C024562672
:1003B0005708C024562608008313423084000030BA
:1003C000600384075530D1020030031801308000EB
:1003D00008001F151F19EA291E08D1001E08D200A7
:1003E000B32311205308C02456265408C02456268F
:1003F0005508C02456265608C02456265708C0243F
:1004000056260800831349308400003060038407B7
:100410000330D102003003180130800008008F0142
:100420008E0108104324081443240810051D162AC1
:1004300010140519192A1010B3230F08D1000E0843
:10044000D20011205308C02456265408C024562632
:10045000B32308008F018E0188104324881443249D
:100460008810851D312A10148519342A1010B323E1
:100470000F08D1000E08D20011205308C0245626C0
:100480005408C0245626B3230800EA01EB01EC010E
:100490003908003C0319080005306A07EA000930F2
:1004A0006B07EB00B9030A306B020318622A6A0873
:1004B000F000643070020318662A3908003C031DFE
:1004C0004C2A0800EA0A0A30EB025D2AEC0A643082
:1004D000EA025D2A83133B30840000306003840706
:1004E0000108B90080000800183047260800AB2832
:1004F000EA2386180800861808008618080086185F
:100500000800782A8312C5309F00C321DC2108002F
:100510008312CD309F00E92102220800B323E00AB4
:100520006008C02456260830600203198D2908008F
:10053000B3236008C02456260800B3230030DF0030
:100540008313413084006008DE00B30103013308E7
:10055000E024003A0319AF2A5626B30AA72A840AD0
:10056000DF0A5F08C0245626B301030133080825BB
:10057000003A0319BE2A5626B30AB62A0008000814
:10058000D4245626B30103013308FD24003A03198D
:10059000CC2A5626B30AC42ADE0BAF2AB023003079
:1005A000DF008313483084006008DE00B3010301DC
:1005B0003308EF24003A0319E02A5626B30AD82A52
:1005C000840ADF0A5F08C0245626B30103013308FA
:1005D0000825003A0319EF2A5626B30AE72A00082D
:1005E0000008D4245626B30103013308FD24003A41
:1005F0000319FD2A5626B30AF52ADE0BE02A080065
:10060000B3230030DF0083133A3084006008DE003B
:10061000B301030133081325003A0319122B5626A0
:10062000B30A0A2BB023840ADF0A5F08C0245626C7
:10063000B301030133080825003A0319222B56267B
:10064000B30A1A2B0008B9000120B30103013308D3
:10065000FD24003A03192F2B5626B30A272BDE0B55
:10066000132B08006218372B0614621408000610BA
:1006700062100800C5309F00C3210800CD309F00E4
:10068000C32108006318472B8712631408008716DC
:100690006310080064184F2B071364140800061D2C
:1006A00007170717641008006618592B07146614FB
:1006B00008000710661008006718612B8717671479
:1006C0000800061D071787136710080068186B2BB2
:1006D0009701681408008316031307111708F039EF
:1006E0000C3897001208D000C33083160313920011
:1006F0008312031392149501121792161216921573
:100700009716171660309500971517151215681073
:10071000080069188E2B9D016914080083160313C5
:1007200087101D08F0390C389D00C3308316031361
:1007300092008312031392149B0112179216121641
:1007400092159D161D1660309B009D151D151215E6
:1007500083126910080097019D015008920008005B
:10076000C030472608000130472608008830B00016
:10077000BD30B1000330B200B00BBF2BB10BC12BA9
:10078000B20BBC2BC32B000000000800D130B50019
:100790004F30B6000230EE00B50BCF2BB60BD12B8D
:1007A000EE0BCC2B08004830B5007A30B6004F3045
:1007B000EE00B50BDC2BB60BDE2BEE0BD92BE02BB2
:1007C00000000800831603132830810083120313EE
:1007D00081010800023083120313F3007525831290
:1007E00003137508C42577085626780856263A302C
:1007F0005626013083120313F30075258312031369
:100800007508C42577085626780856263A305626A5
:10081000003083120313F300752583120313750848
:10082000C4257708562678085626332408008312F4
:1008300003130230F300831203130030F4003A254F
:10084000831203130130F300831203130030F4000A
:100850003A25831203130030F30083120313003090
:10086000F4003A2508001030B0007A30B1000630AC
:10087000B200B00B3C2CB10B3E2CB20B392C402CEF
:100880000000000008001430B600FF30B500B50BC2
:10089000472CB60B452C0800BA0004308A003A08F1
:1008A000553E03188A0A8200820731343A345334A1
:1008B00069346D3475346C346134743469346F3434
:1008C0006E347C3423342F3444343A345034573427
:1008D0004D347C342A342F3430343A345334743425
:1008E00064343134263453347434643432347C34D4
:1008F00033343A3442342F3457340034BA0004309D
:100900008A003A08873E03188A0A82008207353433
:10091000443469347334743461346E34633465340C
:10092000203436344C346F34633461347434693475
:100930006F346E3473340034BA0004308A003A08DD
:10094000A53E03188A0A8200820731345334743476
:10095000693463346B346534723473342034323424
:10096000423469346E347334203433344C346F344D
:1009700063346134743469346F346E3473340034E6
:10098000BA0004308A003A08C93E03188A0A820075
:1009900082073034313432343334343435343634FD
:1009A0003734383439340034BA0004308A003A0815
:1009B000DD3E03188A0A820082074234573400342D
:1009C000BA0004308A003A08E93E03188A0A820015
:1009D0008207463472346F346E3474340034BA0093
:1009E00004308A003A08F83E03188A0A8200820717
:1009F0004234613463346B340034BA0005308A0009
:100A00003A08063E03188A0A82008207203400341E
:100A1000BA0005308A003A08113E03188A0A82009B
:100A200082073A340034BA0005308A003A081C3E86
:100A300003188A0A82008207443469347334743498
:0C0A40002034283463346D342934003431
:040A4C00003400343E
:100A50008316031394011830831603139300083090
:100A6000831203139400941683160313111511199E
:100A7000372D080083160313111411183D2DD030A3
:100A8000831203139300831603131419452D831641
:100A9000031383160313111B6E2D831203137308A4
:100AA000831203139300831603131419552D831611
:100AB000031383160313111B6E2D83120313740883
:100AC000831203139300831603131419652D8316E1
:100AD000031383160313111B6E2D6F2D0000831655
:100AE000031311151119722D080083160313111425
:100AF0001118782DD030831203139300831603133B
:100B00001419802D8316031383160313111BBD2D97
:100B100083120313730883120313930083160313C2
:100B20001419902D8316031383160313111BBD2D67
:100B300083160313911491189B2DD1308312031344
:100B40009300831603131419A32D8316031383161E
:100B50000313111BBD2D8316031391159119AE2D8F
:100B600083120313130883120313F5008316031370
:100B700091161116111ABA2DBE2D000083160313FB
:100B800011151119C12D080083120313F600760EFA
:100B90000F39303EF7008312031376080F39303EC9
:100BA000F80008008316031311141118D52D103006
:100BB000831203139300831603131419DD2D831678
:100BC000031383160313111BF62D831203137008EE
:100BD000831203139300831603131419ED2D831648
:100BE000031383160313111BF62DF62D831603131F
:100BF00011151119F92D080083160313111411187A
:100C0000FF2D11308312031393008316031314195D
:100C1000072E8316031383160313111B202E83162E
:100C2000031391159119122E8312031313088312C3
:100C30000313F0008316031391161116111A1E2EBA
:100C40008316031311151119232E0800831288151A
:100C500067266726672633304726672667263230A1
:100C600047266726672628304726672667260C30E2
:100C700047266726672606304726672667260130FF
:100C80004726672667260800013047260800081116
:100C9000F300F0398800881567268811730EF03943
:100CA0008800881567268811672608000815F40053
:100CB0007408F039043E8800881567268811740E80
:100CC000F039043E88008815672688110800143022
:100CD000F200FF30F100F10B6B2EF20B692E0800D1
:02400E00723FFF
:00000001FF
