:020000040000FA
:100000003428510E0F39F03ED400D407E23ED5001B
:10001000323ED70051080F39D507D507D707E93E3B
:10002000D600D607D607520E0F39D607D707D60DFA
:10003000D70DD709D70D52080F39D707D40D073080
:10004000D3000A30D603D707031C2228D503D607CE
:10005000031C2628D403D507031C2A28D303D4075E
:10006000031C2E28003408008B018316FF30850006
:10007000FE308600870188018901071687158312E3
:10008000850186018701880189014A2548260313D5
:10009000831606309F008312B301030133087224D4
:1000A000003A031956287826B30A4E28A823B3012C
:1000B00003013308A424003A031961287826B30AFF
:1000C0005928E001ED01D523081462146314641467
:1000D00065146614671468146914871207170710EB
:1000E00087170715871406118611861C7528060EBA
:1000F0000F39B900060E0F39003A03191921060EFF
:100100000F39013A03192E23060E0F39023A03194B
:100110003223060E0F39033A03194822060E0F390F
:10012000043A0319F520060E0F39053A0319362350
:10013000060E0F39063A03193823060E0F39073A0F
:1001400003196222060E0F39083A03197022060EAF
:100150000F39093A03196721060E0F390A3A0319B4
:100160004221060E0F390C3A03194223060E0F39AD
:100170000D3A03195423060E0F390E3A03195E2364
:10018000060E0F390F3A031981238618C5287528E2
:10019000080087120713AE23061DCC280717AE23CD
:1001A000AE23AE23AE235E2369246924861DD628A0
:1001B0005E23871659245924592459245924592433
:1001C000E9210F308F02031CDE288712E820080087
:1001D0008123AE23861DEA288123AE23AE23871315
:1001E000AE23061DF12887170800871262221F22FE
:1001F0008A110A121F226A08ED00D201D1016D088E
:10020000D20001205508E22478265608E2247826F8
:100210005708E22478263B22AB235622AE23AE2396
:10022000AE23AE23AB235C22AE23AE23061408001C
:100230004F29E92104228716EF01E9210F308F02AF
:1002400003182829EF0A03306F02031D1D29C92056
:10025000EF01042208308F0203183529EF0A6924C0
:1002600003306F02031D292936212921042206307B
:100270008F02031C3629F520061001306002031995
:100280004F291B295E23BE23AE23861D45295E23ED
:100290008123BE23AE23861D4B2981234229AB2314
:1002A000B30103013308C224003A03195A297826FE
:1002B000B30A5229A823B30103013308A424003A46
:1002C000031965297826B30A5D29871270298716D4
:1002D00059245924592459245924592487127029FE
:1002E000861C7029060E0F39B900060E0F39003A28
:1002F0000319DD23060E0F39023A03197022060E88
:100300000F39033A03194822060E0F39043A03192C
:100310006C22060E0F39053A03191123060E0F3908
:10032000063A0319D322060E0F39073A031962223F
:100330008618982970294F29A3231F151F199E2954
:100340001E08D1001E08D200AB2301205308E2246E
:1003500078265408E22478265508E22478265608A0
:10036000E22478265708E2247826080083134230D6
:1003700084000030600384075230D102003003183B
:100380000130800008001F151F19C4291E08D10064
:100390001E08D200AB2301205308E224782654081B
:1003A000E22478265508E22478265608E2247826A6
:1003B0005708E2247826080083134930840000306F
:1003C000600384071030D102003003180130800030
:1003D00008008F018E010810692408146924081090
:1003E000051DF02910140519F3291010AB230F086F
:1003F000D1000E08D20001205308E22478265408C8
:10040000E2247826AB2308008F018E01881069242E
:10041000881469248810851D0B2A101485190E2A4A
:100420001010AB230F08D1000E08D2000120530892
:10043000E22478265408E2247826AB230800EA0157
:10044000EB010108B9003908003C0319080002302B
:100450006A07EA0000306B07EB00B9030A306B0251
:10046000031837223908003C031D272A0800EA0A2E
:100470000A30EB02322A83133B30840000306003E1
:1004800084078A110A121F226A088000800008006F
:100490001830692608007528DD238618080086189C
:1004A000080086180800861808004C2A83120530B8
:1004B0009F009D21B6210800831215309F00C321A3
:1004C000DC210800AB23E00A6008E224782607302C
:1004D000600203194F2908006008E224782608000A
:1004E000AB230030DF008313413084006008DE005E
:1004F000B301030133080225003A0319822A782642
:10050000B30A7A2A840ADF0A5F08E2247826B30154
:10051000030133082A25003A0319912A7826B30AE1
:10052000892A00080008F6247826B301030133085D
:100530001F25003A03199F2A7826B30A972ADE0B53
:10054000822AA8230030DF0083134830840060082B
:10055000DE00B301030133081125003A0319B32A61
:100560007826B30AAB2A840ADF0A5F08E2247826D9
:10057000B301030133082A25003A0319C22A782659
:10058000B30ABA2A00080008F6247826B30103014A
:1005900033081F25003A0319D02A7826B30AC82A3F
:1005A000DE0BB32A0800AB230030DF0083133A30A0
:1005B00084006008DE00B301030133083525003AEA
:1005C0000319E52A7826B30ADD2AA823840ADF0A5C
:1005D0005F08E2247826B301030133082A25003A94
:1005E0000319F52A7826B30AED2A0008D201D101B1
:1005F0000008D20001205508E22478265608E2249B
:1006000078265708E2247826B301030133081F2512
:10061000003A03190E2B7826B30A062BDE0BE62AC6
:1006200008001F228A110A121F226A08ED00D20157
:10063000D1016D08D20001205508E2247826560821
:10064000E22478265708E2247826080062182B2B2B
:10065000061462140800061062100800C5309F00DE
:100660009D210800CD309F009D210800E921362BF7
:100670000422382B63183F2B871263140800871657
:10068000631008006418472B071364140800061D44
:1006900007170717641008006618512B0714661413
:1006A00008000710661008006718592B8717671491
:1006B0000800061D07178713671008006818632BCA
:1006C0009701681408008316031307111708F039FF
:1006D0000C3897001208D000C33083160313920021
:1006E0008312031392149501121792161216921583
:1006F0009716171660309500971517151215681084
:1007000008006918862B9D016914080083160313DD
:1007100087101D08F0390C389D00C3308316031371
:1007200092008312031392149B0112179216121651
:1007300092159D161D1660309B009D151D151215F6
:1007400083126910080097019D015008920008006B
:10075000C030692608000130692608008830B000E2
:10076000BD30B1000330B200B00BB72BB10BB92BC9
:10077000B20BB42BBB2B000000000800D130B50039
:100780004F30B6000230EE00B50BC72BB60BC92BAD
:10079000EE0BC42B08004F30B500C430B600B50BCB
:1007A000D22BB60BC42BD42B08008316031328308E
:1007B0008100831203138101080001306926323061
:1007C000782630307826063083120313F3009725FD
:1007D000831203137508E6257708782678087826AB
:1007E0002F307826053083120313F30097258312E8
:1007F00003137508E62577087826780878262F30C1
:100800007826043083120313F30097258312031311
:100810007508E6257708782678087826C030692696
:10082000023083120313F300972583120313750814
:10083000E62577087826780878263A307826013039
:1008400083120313F3009725831203137508E6251B
:1008500077087826780878263A3078260030831290
:100860000313F3009725831203137508E625770811
:10087000782678087826592408008312031302305A
:10088000F300831203130030F4005C25831203137A
:100890000130F300831203130030F4005C2583124F
:1008A00003130030F300831203130030F4005C25BF
:1008B00008001030B0007A30B1000630B200B00B42
:1008C000622CB10B642CB20B5F2C662C0000000074
:1008D00008001430B600FF30B500B50B6D2CB60B18
:1008E0006B2C0800BA0004308A003A087B3E0318DB
:1008F0008A0A8200820731343A34533469346D34C1
:1009000075346C346134743469346F346E347C34CF
:1009100023342F3444343A34503457344D347C34F7
:100920002A342F3430343A34533474346434313408
:10093000263453347434643432347C3433343A34AB
:1009400042342F3457340034BA0004308A003A0855
:10095000AD3E03188A0A8200820735344434693474
:100960007334743461346E34633465342034363413
:100970004C346F3463346134743469346F346E349E
:1009800073340034BA0004308A003A08CB3E0318AE
:100990008A0A820082073134543469346D346534F4
:1009A0002034333453347434693463346B346534F1
:1009B00072347334203434342334423469346E3422
:1009C00073340034BA0004308A003A08EB3E03184E
:1009D0008A0A82008207303431343234333434347A
:1009E000353436343734383439340034BA000430CE
:1009F0008A003A08FF3E03188A0A820082074234BE
:100A000057340034BA0005308A003A080B3E031808
:100A10008A0A82008207463472346F346E3474342A
:100A20000034BA0005308A003A081A3E03188A0AD0
:100A3000820082074234613463346B340034BA007C
:100A400005308A003A08283E03188A0A8200820785
:100A500020340034BA0005308A003A08333E0318C7
:100A60008A0A820082073A340034BA0005308A00CC
:100A70003A083E3E03188A0A8200820744346934E9
:100A8000733474342034283463346D34293400349E
:040A900000340034FA
:0C0A94008316031394011830831603131B
:100AA00093000830831203139400941683160313E3
:100AB00011151119592D080083160313111411185B
:100AC0005F2DD03083120313930083160313141980
:100AD000672D8316031383160313111B902D8312A6
:100AE000031373088312031393008316031314195B
:100AF000772D8316031383160313111B902D831276
:100B00000313740883120313930083160313141939
:100B1000872D8316031383160313111B902D912D1C
:100B200000008316031311151119942D0800831664
:100B30000313111411189A2DD0308312031393004C
:100B4000831603131419A22D83160313831603139C
:100B5000111BDF2D831203137308831203139300F9
:100B6000831603131419B22D83160313831603136C
:100B7000111BDF2D8316031391149118BD2DD13055
:100B8000831203139300831603131419C52D8316C0
:100B9000031383160313111BDF2D83160313911503
:100BA0009119D02D83120313130883120313F50038
:100BB0008316031391161116111ADC2DE02D000077
:100BC0008316031311151119E32D08008312031363
:100BD000F600760E0F39303EF700831203137608C5
:100BE0000F39303EF8000800831603131114111852
:100BF000F72D103083120313930083160313141977
:100C0000FF2D8316031383160313111B182E831253
:100C1000031370088312031393008316031314192C
:100C20000F2E8316031383160313111B182E182E71
:100C300083160313111511191B2E080083160313B5
:100C400011141118212E11308312031393008316EF
:100C500003131419292E8316031383160313111B70
:100C6000422E8316031391159119342E8312031308
:100C7000130883120313F000831603139116111641
:100C8000111A402E8316031311151119452E080051
:100C90008312881589268926892633306926892674
:100CA00089263230692689268926283069268926B0
:100CB00089260C30692689268926063069268926E8
:100CC000892601306926892689260800013069268F
:100CD00008000811F300F03988008815892688116A
:100CE000730EF03988008815892688118926080036
:100CF0000815F4007408F039043E88008815892628
:100D00008811740EF039043E8800881589268811F0
:100D100008001430F200FF30F100F10B8D2EF20BC1
:040D20008B2E08000E
:02400E00723FFF
:00000001FF
