:020000040000FA
:1000000034283D0E0F39F03EC000C007E23EC1006B
:10001000323EC3003D080F39C107C107C307E93E9F
:10002000C200C207C2073E0E0F39C207C307C20D86
:10003000C30DC309C30D3E080F39C307C00D0730F8
:10004000BF000A30C203C307031C2228C103C20732
:10005000031C2628C003C107031C2A28BF03C007AE
:10006000031C2E28003408008B0183168501F23012
:10007000860087018801071687158312850186018E
:1000800087018801652463250313831605148312F1
:10009000831606309F008312C5309F00B301030111
:1000A0003308D622003A031958289325B30A50285A
:1000B0000030D600D2007B2807170130D207D219B2
:1000C0007820D821531C5C280713E6218717E621E6
:1000D000E321B30103013308F023003A0319732825
:1000E0009325B30A6B28E621E62187135C28512962
:1000F000071387165129861C7B28060E0F39B90075
:10010000060E0F39003A03195C20060E0F39013A2A
:1001100003196821060E0F39023A0319B121060EA0
:100120000F39033A0319A321060E0F39043A0319B4
:10013000E420060E0F39053A0319B721060E0F39D0
:10014000063A0319D021060E0F39083A0319D821AF
:10015000060E0F39093A0319A7218618AD287B2806
:10016000080007151F151F19B3281E08BD001E081B
:10017000BE00012081258313433004080030560B54
:10018000C228080084070330BF0200300318013082
:1001900080003F08372493254008372493254108E1
:1001A0003724932542083724932543083724932581
:1001B000E621E621071108000514C5309F0008005C
:1001C0008514CD309F00080007153F08372493257C
:1001D0001F151F19E9281E08BD001E08BE00E321D7
:1001E00001208313433004080030560BF92808001F
:1001F00084070330BF02003003180130800040083C
:100200003724932541083724932542083724932522
:10021000430837249325E621E6210711E428071532
:100220001F151F1911291E08BD001E08BE00E3215D
:1002300001203F083724932540083724932541089F
:1002400037249325420837249325430837249325E0
:10025000E621E3210130BF0200300318013008001D
:1002600007151F151F1932291E08BD001E08BE00E4
:10027000E32101203F0837249325400837249325A4
:10028000410837249325420837249325430837240F
:100290009325E621E3210130BF020030031801302D
:1002A0000800E321B301030133080C23003A0319CA
:1002B0005C299325B30A5429E021B30103013308D3
:1002C0003023003A031967299325B30A5F297B2855
:1002D000E321B301030133085223003A03197329C0
:1002E0009325B30A6B29E021B3010301330880236E
:1002F000003A03197E299325B30A76290800E321E1
:10030000B30103013308AD23003A03198A29932569
:10031000B30A82290800E321B30103013308D8237B
:10032000003A031996299325B30A8E290800E32180
:10033000B30103013308F023003A0319A2299325DE
:10034000B30A9A2908001830842508005828F62195
:100350008618080086180800861808008618080005
:10036000A729E321D60A5608372493250800E3215C
:100370000030D8008313433084005608D7003F086C
:1003800037249325E420840AD80A58083724932573
:10039000E621000800084B249325D70BC329080049
:1003A0000F21C40044084B249325E621E6210800D0
:1003B0003021D300530857249325E621E621080075
:1003C000C030842508000130842508008830B00042
:1003D000BD30B1000330B200B00BEF29B10BF129F1
:1003E000B20BEC29F329000000000800013084253D
:1003F0003230932530309325063083120313F300F7
:10040000B224831203137508012577089325780811
:1004100093252F309325053083120313F300B22464
:10042000831203137508012577089325780893250F
:100430002F309325043083120313F300B224831268
:100440000313750801257708932578089325C03094
:100450008425023083120313F300B22483120313A2
:100460007508012577089325780893253A30932558
:10047000013083120313F300B224831203137508AF
:10048000012577089325780893253A309325003085
:1004900083120313F300B22483120313750801259A
:1004A0007708932578089325BE220800831203134A
:1004B000F40183120313F301772483120313F30A65
:1004C000772483120313F30A772483120313F30AA6
:1004D000772483120313F30A772483120313F30A96
:1004E000772483120313F30A772483120313003053
:1004F000F300831203138030F40077248312031374
:100500000630F300831203131630F40077248312AD
:1005100003130530F300831203130230F400772431
:10052000831203130430F300831203131630F40014
:100530007724831203130330F30083120313213053
:10054000F4007724831203130230F30083120313A1
:100550000130F4007724831203130130F300831277
:1005600003133530F4007724831203130030F300B3
:10057000831203135030F400772408001030B000C9
:100580007A30B1000630B200B00BC72AB10BC92ACD
:10059000B20BC42ACB2A00000000080000304B2414
:1005A0009325080001304B2493250800BA0002303F
:1005B0008A003A08DF3E03188A0A82008207503414
:1005C00072346534733473342034313420347434E9
:1005D0006F3420347334743461347234743420349E
:1005E00072346F3462346F3474340034BA000230C1
:1005F0008A003A08FF3E03188A0A820082074F34B5
:100600007034653472346134743469346E346734F0
:100610002E342E342E340034BA0003308A003A08C7
:10062000153E03188A0A82008207503472346534FA
:100630007334733420343234203474346F342034BF
:1006400064346934733470346C34613479342034F4
:1006500072346534733475346C34743473340034E8
:10066000BA0003308A003A08393E03188A0A820029
:100670008207503472346534733473342034413417
:10068000203474346F34203472346F3474346134F1
:1006900074346534203473346334723465346534AF
:1006A0006E340034BA0003308A003A085B3E031807
:1006B0008A0A8200820733343A3420346E34753427
:1006C0006D3462346534723420346F3466342034CF
:1006D000623469346E3473342C34203436343A3412
:1006E000203473347434693463346B346534723455
:1006F0002034733474346134743475347334003496
:10070000BA0003308A003A08893E03188A0A820038
:10071000820736343A342034623469346E342034FB
:100720006C346F3463346134743469346F346E34D0
:1007300073342C34203438343A3420346F347034E9
:10074000653472346134743469346F346E342034F7
:10075000743469346D3465340034BA0003308A006F
:100760003A08B63E03188A0A8200820734342034DD
:10077000623469346E347334203469346E34203416
:1007800074346F34743461346C340034BA00033020
:100790008A003A08CF3E03188A0A82008207423450
:1007A0004234573442345734573457344234003487
:1007B000BA0003308A003A08E13E03188A0A820030
:1007C000820730342E34333435342C3430342E34E4
:1007D000353436342C3430342E3437343934003414
:1007E000BA0003308A003A08F93E03188A0A8200E8
:1007F00082074D346F34763469346E346734203474
:10080000413472346D340034BA0004308A003A083E
:100810000D3E03188A0A82008207743461346B34F7
:1008200069346E34203469346E3420346C3461346D
:100830007234673465342034763461346C34753402
:1008400065340034BA0004308A003A082B3E03189D
:100850008A0A8200820773346D3461346C346C34DC
:100860002034763461346C34753465340034BA0025
:1008700004308A003A08403E03188A0A8200820740
:10088000303431343234333434343534363437342C
:10089000383439340034BA0004308A003A08543EFF
:1008A00003188A0A82008207423457340034BA009F
:1008B00004308A003A08603E03188A0A82008207E0
:0608C0004E3459340034EF
:0408C60000340034C6
:0608CA00831603139401E4
:1008D0001830831603139300083083120313940017
:1008E00094168316031311151119742C080083161E
:1008F0000313111411187A2CD030831203139300B0
:10090000831603131419822C8316031383160313FF
:10091000111BAB2C83120313730883120313930070
:10092000831603131419922C8316031383160313CF
:10093000111BAB2C8312031374088312031393004F
:10094000831603131419A22C83160313831603139F
:10095000111BAB2CAC2C00008316031311151119BD
:10096000AF2C08008316031311141118B52CD030C6
:10097000831203139300831603131419BD2C8316DB
:10098000031383160313111BFA2C8312031373082A
:10099000831203139300831603131419CD2C8316AB
:1009A000031383160313111BFA2C831603139114DC
:1009B0009118D82CD130831203139300831603139C
:1009C0001419E02C8316031383160313111BFA2C3E
:1009D0008316031391159119EB2C8312031313083B
:1009E00083120313F5008316031391161116111ABF
:1009F000F72CFB2C00008316031311151119FE2C84
:100A0000080083120313F600760E0F39303EF7000C
:100A10008312031376080F39303EF800080083165E
:100A2000031311141118122D1030831203139300A5
:100A30008316031314191A2D831603138316031335
:100A4000111B332D831203137008831203139300B9
:100A50008316031314192A2D831603138316031305
:100A6000111B332D332D8316031311151119362D38
:100A7000080083160313111411183C2D1130831232
:100A800003139300831603131419442D83160313C1
:100A900083160313111B5D2D8316031391159119F2
:100AA0004F2D83120313130883120313F0008316D0
:100AB000031391161116111A5B2D831603131115CA
:100AC0001119602D080083128815A425A425A425DA
:100AD00033308425A425A42532308425A425A425DB
:100AE00028308425A425A4250C308425A425A425FC
:100AF00006308425A425A42501308425A425A42519
:100B000008000130842508000811F300F03988003E
:100B10008815A4258811730EF03988008815A4253E
:100B20008811A42508000815F4007408F039043E63
:100B300088008815A4258811740EF039043E8800B9
:100B40008815A425881108001430F200FF30F10048
:0A0B5000F10BA82DF20BA62D0800F2
:02400E00723FFF
:00000001FF
