:020000040000FA
:100000003428510E0F39F03ED400D407E23ED5001B
:10001000323ED70051080F39D507D507D707E93E3B
:10002000D600D607D607520E0F39D607D707D60DFA
:10003000D70DD709D70D52080F39D707D40D073080
:10004000D3000A30D603D707031C2228D503D607CE
:10005000031C2628D403D507031C2A28D303D4075E
:10006000031C2E28003408008B018316FF30850006
:10007000F2308600870188010716871583128501F3
:10008000860187018801BC25BA260313831605144F
:100090008312831606309F008312C5309F00B30180
:1000A000030133080924003A03195928EA26B30A40
:1000B00051280423B301030133082E24003A031905
:1000C0006428EA26B30A5C2808140030E000E20144
:1000D0006314641465146614871607130611071554
:1000E0008714861C7128060E0F39B900060E0F39C9
:1000F000003A03199922060E0F39013A0319872293
:10010000060E0F39023A03197322060E0F39033A0D
:1001100003193122060E0F39043A03197D22060E07
:100120000F39053A03196B22060E0F39063A0319E7
:100130008F22060E0F39073A03194B22060E0F398C
:10014000083A03195622060E0F39093A0319F3200B
:10015000060E0F390A3A0319B222060E0F390B3A6E
:100160000319FF22060E0F390C3A0319A222060EBC
:100170000F390D3A0319AA22060E0F390E3A031948
:10018000BA22060E0F390F3A0319DD228618C62847
:10019000712808000030DD00D8000030E000BA22ED
:1001A00001305807D8000430D8020030031801305D
:1001B0000018F1207322421CCF28BA220A23DD2224
:1001C0000723B301030133084725003A0319EB283D
:1001D000EA26B30AE3280A230A230A23DD22CF28CA
:1001E000DF29FF22DF29831215309F001F151F19F9
:1001F000F7281E08D1001E08D2000723012053084B
:100200008E25EA2654088E25EA2655088E25EA26EC
:1002100056088E25EA2657088E25EA268313423093
:1002200084000030600384070330D30200300318D9
:10023000013080000800071553088E25EA261F1597
:100240001F1920291E08D1001E08D20007230120F3
:1002500083134330040800305D0B30290800840705
:100260000330D302003003180130800054088E257B
:10027000EA2655088E25EA2656088E25EA265708CE
:100280008E25EA260A230A2307111B291F151F1989
:1002900047291E08D1001E08D20007230120530859
:1002A0008E25EA2654088E25EA2655088E25EA264C
:1002B00056088E25EA2657088E25EA260A230723A4
:1002C0000130D302003003180130080007151F1554
:1002D0001F1968291E08D1001E08D200072301201B
:1002E00053088E25EA2654088E25EA2655088E25C1
:1002F000EA2656088E25EA2657088E25EA260A237E
:1003000007230130D3020030031801300800A52173
:1003100007230F08D1000E08D200012053088E25B4
:10032000EA2654088E25EA2655088E25EA26560820
:100330008E25EA2657088E25EA260A230723013050
:10034000D30201300318003008008F018E0108101D
:100350001A23081424230810051EAC291014051AAA
:10036000AF2910100800D12107230F08D1000E0873
:10037000D200012053088E25EA2654088E25EA264D
:1003800055088E25EA2656088E25EA2657088E251A
:10039000EA260A2307230130D30201300318003074
:1003A000B3298F018E0188101A2388142423881002
:1003B000851ED8291014851ADB2910100800072380
:1003C000B301030133086C24003A0319EA29EA2631
:1003D000B30AE2290423B301030133089024003A4D
:1003E0000319F529EA26B30AED2971280723B30179
:1003F00003013308B224003A0319012AEA26B30A9A
:10040000F9290423B30103013308D724003A03195F
:100410000C2AEA26B30A042A08000723B3010301C1
:1004200033080425003A0319182AEA26B30A102AC9
:1004300008000723B301030133082F25003A0319ED
:10044000242AEA26B30A1C2A08000723B301030161
:1004500033084725003A0319302AEA26B30A282A26
:1004600008001830DB2608007128292386180800A8
:10047000861808008618080086180800352A072301
:100480000030DF008313433084005D08DE00530832
:100490008E25EA261B210723E00A60088E25EA261E
:1004A0000A23073060020319DF2908000723003000
:1004B000DF008313413084006008DE00840ADF0A15
:1004C0005F088E25EA260A2300080008A225EA26EE
:1004D000DE0B5E2A08006218702A061462140800F7
:1004E000061062100800C5309F004621C200420875
:1004F000A225EA260A230A23732ACD309F0046212B
:10050000C2004208A225EA260A230A23080066211F
:10051000D9005908AE25EA260A230A230800D8265E
:100520008721D826DA005A08AE25EA260A230A23AC
:100530000800B321D826D9005908AE25EA260A2397
:100540000A2308006318A72A871263140800871675
:10055000631008006418AF2A071764140800071313
:10056000641008006318B72A861563140800861102
:10057000631008006518BF2A9701651408008316E8
:10058000031307111708F0390C3897001208D00030
:10059000C330831603139200831203139214950140
:1005A00012179216121692159716171661309500AB
:1005B00097151715121565100800661CE22A9D0193
:1005C000661008008316031387101D08F0390C38D5
:1005D0009D00C330831603139200831203139214F9
:1005E0009B0112179216121692159D161D16613058
:1005F0009B009D151D1512158312661408009701A6
:100600009D01500892000800C030DB260800013030
:10061000DB2608008830B000BD30B1000330B200E6
:10062000B00B132BB10B152BB20B102B172B00009B
:1006300000000800E730B5000430B600B50B212BF0
:10064000B60B1E2B232B08001430E100E10B262BE8
:1006500008000130DB263230EA263030EA26063048
:1006600083120313F3000926831203137508582617
:100670007708EA267808EA262F30EA260530831222
:100680000313F3000926831203137508582677080D
:10069000EA267808EA262F30EA260430831203136C
:1006A000F300092683120313750858267708EA26F3
:1006B0007808EA26C030DB26023083120313F300E9
:1006C000092683120313750858267708EA26780846
:1006D000EA263A30EA26013083120313F300092692
:1006E00083120313750858267708EA267808EA2645
:1006F0003A30EA26003083120313F30009268312EE
:100700000313750858267708EA267808EA26F123A5
:10071000080083120313F40183120313F301CE259F
:1007200083120313F30ACE2583120313F30ACE2593
:1007300083120313F30ACE2583120313F30ACE2583
:1007400083120313F30ACE2583120313F30ACE2573
:10075000831203130030F300831203138030F4007C
:10076000CE25831203130630F300831203131630D1
:10077000F400CE25831203130530F3008312031314
:100780000230F400CE25831203130430F3008312E9
:1007900003131630F400CE25831203130330F30045
:1007A000831203132130F400CE2583120313023089
:1007B000F300831203130130F400CE2583120313D8
:1007C0000130F300831203133530F400CE25831279
:1007D00003130030F300831203135030F400CE25CE
:1007E00008001030B0007A30B1000630B200B00B13
:1007F000FA2BB10BFC2BB20BF72BFE2B00000000E9
:1008000008000030A225EA2608000130A225EA26C9
:100810000800BA0004308A003A08123E03188A0A17
:100820008200820731343A34533474346134723480
:1008300074347C3423342F3444343A3450345734B1
:100840004D347C3432343A3443346F346C347C3439
:1008500033343A3442342F3457340034BA0004303D
:100860008A003A08373E03188A0A82008207353424
:100870003A34413464346434423469346E347C3400
:1008800036343A3453347434693463346B346534F5
:10089000723473347C3437343A3442342F3457341E
:1008A000733474346F34723465340034BA000430F5
:1008B0008A003A085F3E03188A0A820082074F3492
:1008C0007034653472346134743469346E3467342E
:1008D0002E342E342E340034BA0004308A003A0804
:1008E000753E03188A0A82008207503472346534D8
:1008F0007334733420343234203474346F342034FD
:1009000064346934733470346C3461347934203431
:1009100072346534733475346C3474347334003425
:10092000BA0004308A003A08993E03188A0A820005
:100930008207503472346534733473342034413454
:10094000203474346F34203472346F34743461342E
:1009500074346534203473346334723465346534EC
:100960006E340034BA0004308A003A08BB3E0318E3
:100970008A0A8200820733343A34203450345734A0
:100980004D34203474346534733474342C3420344E
:1009900034343A342034533465346E3473346F3421
:1009A0007234203454346534733474340034BA00EF
:1009B00004308A003A08E03E03188A0A820082075F
:1009C00036343A342034623469346E3420346C3432
:1009D0006F3463346134743469346F346E34733417
:1009E0002C34203438343A3420346F347034653445
:1009F00072346134743469346F346E342034743436
:100A000069346D3465340034BA0005308A003A0820
:100A10000D3E03188A0A820082073434203462347F
:100A200069346E347334203469346E342034743451
:100A30006F34743461346C340034BA0005308A0089
:100A40003A08263E03188A0A82008207423442345A
:100A50005734423457345734573442340034BA0090
:100A600005308A003A08383E03188A0A8200820755
:100A700030342E34333435342C3430342E34353451
:100A800036342C3430342E34373439340034BA0010
:100A900005308A003A08503E03188A0A820082070D
:100AA0004D346F34763469346E34673420344134D5
:100AB00072346D340034BA0005308A003A08643E5E
:100AC00003188A0A82008207743461346B346934F3
:100AD0006E34203469346E3420346C3461347234B2
:100AE000673465342034763461346C34753465345D
:100AF0000034BA0005308A003A08823E03188A0A98
:100B00008200820773346D3461346C346C34203469
:100B1000763461346C34753465340034BA00053091
:100B20008A003A08973E03188A0A82008207303406
:100B30003134323433343434353436343734383471
:100B400039340034BA0005308A003A08AB3E031845
:100B50008A0A82008207423457340034BA000530D2
:100B60008A003A08B73E03188A0A820082074E3488
:040B700059340034C0
:040B74000034003415
:080B78008316031394011830E9
:100B80008316031393000830831203139400941602
:100B90008316031311151119CB2D080083160313A7
:100BA00011141118D12DD030831203139300831622
:100BB00003131419D92D8316031383160313111B62
:100BC000022E8312031373088312031393008316F8
:100BD00003131419E92D8316031383160313111B32
:100BE000022E8312031374088312031393008316D7
:100BF00003131419F92D8316031383160313111B02
:100C0000022E032E00008316031311151119062E50
:100C1000080083160313111411180C2ED030831200
:100C200003139300831603131419142E831603134E
:100C300083160313111B512E83120313730883129F
:100C400003139300831603131419242E831603131E
:100C500083160313111B512E83160313911491183D
:100C60002F2ED1308312031393008316031314190C
:100C7000372E8316031383160313111B512E83166D
:100C8000031391159119422E831203131308831233
:100C90000313F5008316031391161116111A4E2E25
:100CA000522E00008316031311151119552E08003A
:100CB00083120313F600760E0F39303EF7008312CD
:100CC000031376080F39303EF8000800831603132B
:100CD00011141118692E1030831203139300831618
:100CE00003131419712E8316031383160313111B98
:100CF0008A2E831203137008831203139300831642
:100D000003131419812E8316031383160313111B67
:100D10008A2E8A2E83160313111511198D2E0800A1
:100D20008316031311141118932E11308312031319
:100D300093008316031314199B2E83160313831633
:100D40000313111BB42E8316031391159119A62EAC
:100D500083120313130883120313F0008316031383
:100D600091161116111AB22E8316031311151119AB
:100D7000B72E080083128815FB26FB26FB2633308E
:100D8000DB26FB26FB263230DB26FB26FB26283023
:100D9000DB26FB26FB260C30DB26FB26FB2606305B
:100DA000DB26FB26FB260130DB26FB26FB26080084
:100DB0000130DB2608000811F300F039880088159F
:100DC000FB268811730EF03988008815FB268811E0
:100DD000FB2608000815F4007408F039043E88006A
:100DE0008815FB268811740EF039043E880088159A
:100DF000FB26881108001430F200FF30F100F10BDF
:080E0000FF2EF20BFD2E08008D
:02400E00723FFF
:00000001FF
