:020000040000FA
:100000003428510E0F39F03ED400D407E23ED5001B
:10001000323ED70051080F39D507D507D707E93E3B
:10002000D600D607D607520E0F39D607D707D60DFA
:10003000D70DD709D70D52080F39D707D40D073080
:10004000D3000A30D603D707031C2228D503D607CE
:10005000031C2628D403D507031C2A28D303D4075E
:10006000031C2E28003408008B018316FF30850006
:10007000F2308600870188018901071687158312EF
:10008000850186018701880189016C266A2703138F
:10009000831605148312831606309F008312B30162
:1000A00003013308D024003A031959289A27B30AC8
:1000B0005128BA23B30103013308F524003A031988
:1000C00064289A27B30A5C28E001EC01DF230814B6
:1000D0006214631464146514661467146814691454
:1000E000871207130611861107118710861C7628C0
:1000F000060E0F39B900060E0F39003A0319CA204F
:10010000060E0F39023A03192A23060E0F39033A55
:1001100003196022060E0F39043A03193423060E20
:100120000F39053A03192223060E0F39063A03192F
:100130003E23060E0F39073A03197722060E0F39B0
:10014000083A03198222060E0F39093A03196E2262
:10015000060E0F390A3A03196823060E0F390B3AB7
:1001600003199421060E0F390C3A03195023060E79
:100170000F390D3A03195823060E0F390E3A031999
:100180007023060E0F390F3A031993238618C628D9
:10019000762808007023C023C0238716BD23B3012F
:1001A00003013308E425003A0319D9289A27B30A32
:1001B000D128C023C02387120713BD23B301030135
:1001C0003308E425003A0319E8289A27B30AE028FF
:1001D000C023C0230717BD23F121C0238A110A12AF
:1001E000F1216A08EC00D201D1016C08D200012093
:1001F0005508F8259A275608F8259A275708F8250C
:100200009A270D22C023C0237722C023C023BD23F9
:10021000F121C0238A110A12F1216A08EC00D201EF
:10022000D1016C08D20001205508F8259A275608FC
:10023000F8259A275708F8259A270D22C023C023AE
:10024000E52276280914851E09102229B5231A2AC9
:100250001F151F1929291E08D1001E08D200BD2311
:1002600001205308F8259A275408F8259A2755089D
:10027000F8259A275608F8259A275708F8259A2727
:10028000C0238313423084000030600384070130B0
:10029000D302003003180130800008001F151F1919
:1002A0004F291E08D1001E08D200BD23012053088B
:1002B000F8259A275408F8259A275508F8259A27EB
:1002C0005608F8259A275708F8259A27C02383133C
:1002D000493084000030600384070130D3020030CD
:1002E00003180130800008001F151F1975291E080A
:1002F000D1001E08D200BD2301205308F8259A27FB
:100300005408F8259A275508F8259A275608F825FD
:100310009A275708F8259A27C023BD230130D30216
:1003200000300318013008000108053C0319992129
:100330009421BD2309149C219C29BB21BD230F08B6
:10034000D1000E08D20001205308F8259A2754083E
:10035000F8259A275508F8259A275608F8259A2748
:100360005708F8259A27C023BD230130D302013056
:100370000318003008008F018E010814C7240810EC
:10038000051DC02910140519C32910100800E52106
:10039000BD230F08D1000E08D20001205308F82514
:1003A0009A275408F8259A275508F8259A275608B9
:1003B000F8259A275708F8259A27C023BD2301302E
:1003C000D30201300318003008008F018E01081499
:1003D000C7240810051DEA2910140519ED2910106D
:1003E0000800EA01EB010108B9003908003C0319D3
:1003F000080001306A07EA0001306B07EB00B9031F
:100400000A306B02031809223908003C031DF92940
:100410000800EA0A0A30EB02042A831350308400F1
:100420000030600384078A110A12F1216A088000F3
:1004300080000800BD23B301030133083325003ACF
:100440000319252A9A27B30A1D2ABA23B3010301E7
:1004500033085725003A0319302A9A27B30A282A65
:100460007628BD23B301030133087925003A031927
:100470003C2A9A27B30A342ABA23B301030133086A
:100480009E25003A0319472A9A27B30A3F2A0800F3
:10049000BD23B30103013308CB25003A0319532AC6
:1004A0009A27B30A4B2A0800BD23B301030133087E
:1004B000E425003A03195F2A9A27B30A572A08004D
:1004C00018308B2708007628E7238618080086183E
:1004D00008008618080086180800642A8312053070
:1004E0009F002821831215309F004E210800BD2354
:1004F000E00A6008F8259A27C02307306002031934
:100500001A2A0800BD230030DF0083134130840025
:100510006008DE00B301030133082426003A031902
:10052000942A9A27B30A8C2A840ADF0A5F08F825DE
:100530009A27B301030133084C26003A0319A32A72
:100540009A27B30A9B2A000800080C269A27B301B1
:10055000030133084126003A0319B12A9A27B30A46
:10056000A92ADE0B942ABA230030DF008313483017
:1005700084006008DE00B301030133083326003A2B
:100580000319C52A9A27B30ABD2A840ADF0A5F081D
:10059000F8259A27B301030133084C26003A0319C2
:1005A000D42A9A27B30ACC2A000800080C269A27D6
:1005B000B301030133084126003A0319E22A9A27BE
:1005C000B30ADA2ADE0BC52A0800BD230030DF009B
:1005D00083134F3084006008DE00B3010301330849
:1005E0005726003A0319F72A9A27B30AEF2A840AF2
:1005F000DF0A5F08F8259A27B301030133084C2668
:10060000003A0319062B9A27B30AFE2A0008D201E2
:10061000D1010008D20001205508F8259A27560874
:10062000F8259A275708F8259A27B30103013308BC
:100630004126003A03191F2B9A27B30A172BDE0B0A
:10064000F72A08006218272B061462140800061007
:1006500062100800C5309F007421C20042080C26B9
:100660009A27C023C0232A2BCD309F007421C200BB
:1006700042080C269A27C023C02308009D21882702
:10068000DA005A0818269A27C023C0230800C72179
:100690008827D900590818269A27C023C0230800A4
:1006A0006318552B8712631408008716631008001F
:1006B00064185D2B07136414080007176410080002
:1006C0006618652B061566140800061166100800EA
:1006D00067186D2B861567140800861167100800CF
:1006E0006818752B97016814080083160313071107
:1006F0001708F0390C3897001208D000C330831661
:100700000313920083120313921495011217921689
:100710001216921597161716613095009715171532
:100720001215681008006918982B9D0169140800BB
:100730008316031387101D08F0390C389D00C33051
:100740008316031392008312031392149B01121752
:100750009216121692159D161D1661309B009D155E
:100760001D15121583126910080097019D0150088C
:1007700092000800C0308B27080001308B2708004A
:100780008830B000BD30B1000330B200B00BC92BCF
:10079000B10BCB2BB20BC62BCD2B000000000800F9
:1007A000E730B5000430B600B50BD72BB60BD42B11
:1007B000D92B08001430E100E10BDC2B0800831674
:1007C00003132830810083120313810108000130D4
:1007D0008B2732309A2730309A2706308312031342
:1007E000F300B926831203137508082777089A27A0
:1007F00078089A272F309A27053083120313F300C5
:10080000B926831203137508082777089A277808F2
:100810009A272F309A27043083120313F300B92646
:10082000831203137508082777089A2778089A27F0
:10083000C0308B27023083120313F300B9268312D2
:1008400003137508082777089A2778089A273A30FB
:100850009A27013083120313F300B926831203137E
:100860007508082777089A2778089A273A309A2730
:10087000003083120313F300B926831203137508A3
:10088000082777089A2778089A27AF240800831248
:100890000313F40183120313F3017E26831203135F
:1008A000F30A7E2683120313F30A7E2683120313B0
:1008B000F30A7E2683120313F30A7E2683120313A0
:1008C000F30A7E2683120313F30A7E268312031390
:1008D0000030F300831203138030F4007E2683126D
:1008E00003130630F300831203131630F4007E2640
:1008F000831203130530F300831203130230F40054
:100900007E26831203130430F30083120313163080
:10091000F4007E26831203130330F30083120313C3
:100920002130F4007E26831203130230F300831279
:1009300003130130F4007E26831203130130F30009
:10094000831203133530F4007E2683120313003024
:10095000F300831203135030F4007E260800103099
:10096000B0007A30B1000630B200B00BB82CB10B39
:10097000BA2CB20BB52CBC2C0000000008000030D3
:100980000C269A27080001300C269A2708001430FC
:10099000B600FF30B500B50BCB2CB60BC92C080048
:1009A000BA0004308A003A08D93E03188A0A820045
:1009B000820731343A3453347434613472347434C9
:1009C0007C3423342F3444343A34503457344D3447
:1009D0007C3432343A3443346F346C347C343334C2
:1009E0003A3442342F3457340034BA0004308A0089
:1009F0003A08FE3E03188A0A8200820735343A34E8
:100A0000413464346434423469346E347C34363472
:100A10003A3453347434693463346B346534723427
:100A200073347C3437343A3442342F34573473348B
:100A300074346F34723465340034BA0005308A007F
:100A40003A08263E03188A0A820082074F3470341F
:100A5000653472346134743469346E3467342E34DE
:100A60002E342E340034BA0005308A003A083C3E59
:100A700003188A0A82008207503472346534733452
:100A8000733420343234203474346F34203464347A
:100A90006934733470346C34613479342034723492
:100AA0006534733475346C34743473340034BA0080
:100AB00005308A003A08603E03188A0A82008207DD
:100AC00050347234653473347334203441342034F8
:100AD00074346F34203472346F3474346134743449
:100AE00065342034733463347234653465346E3461
:100AF0000034BA0005308A003A08823E03188A0A98
:100B00008200820733343A342034503457344D3421
:100B1000203474346534733474342C3420343434D5
:100B20003A342034533465346E3473346F34723451
:100B3000203454346534733474340034BA000530CE
:100B40008A003A08A73E03188A0A820082073634D0
:100B50003A342034623469346E3420346C346F3467
:100B600063346134743469346F346E3473342C34C8
:100B7000203438343A3420346F347034653472346D
:100B80006134743469346F346E34203474346934AD
:100B90006D3465340034BA0005308A003A08D43E1A
:100BA00003188A0A8200820734342034623469349C
:100BB0006E347334203469346E34203474346F34BA
:100BC000743461346C340034BA0005308A003A0859
:100BD000ED3E03188A0A820082074D346F34763462
:100BE00069346E3467342034413472346D340034E7
:100BF000BA0006308A003A08013E03188A0A8200C9
:100C0000820730343134323433343434353436348A
:100C10003734383439340034BA0006308A003A08A0
:100C2000153E03188A0A8200820742345734003482
:100C3000BA0006308A003A08213E03188A0A820068
:100C400082074E3459340034BA0006308A003A081C
:100C50002D3E03188A0A82008207463472346F34AC
:100C60006E3474340034BA0006308A003A083C3ED0
:100C700003188A0A820082074234613463346B3479
:100C80000034BA0006308A003A084A3E03188A0A3D
:100C90008200820720340034BA0006308A003A0805
:100CA000553E03188A0A820082073A340034BA009B
:100CB00006308A003A08603E03188A0A82008207DA
:100CC00044346934733474342034283463346D34D8
:040CD000293400348F
:040CD40000340034B4
:080CD800831603139401183088
:100CE00083160313930008308312031394009416A1
:100CF00083160313111511197B2E08008316031395
:100D000011141118812ED03083120313930083160F
:100D100003131419892E8316031383160313111B4F
:100D2000B22E8312031373088312031393008316E6
:100D300003131419992E8316031383160313111B1F
:100D4000B22E8312031374088312031393008316C5
:100D500003131419A92E8316031383160313111BEF
:100D6000B22EB32E00008316031311151119B62EDF
:100D700008008316031311141118BC2ED0308312EF
:100D800003139300831603131419C42E831603133D
:100D900083160313111B012F83120313730883128D
:100DA00003139300831603131419D42E831603130D
:100DB00083160313111B012F83160313911491182B
:100DC000DF2ED130831203139300831603131419FB
:100DD000E72E8316031383160313111B012F8316AB
:100DE000031391159119F22E831203131308831222
:100DF0000313F5008316031391161116111AFE2E14
:100E0000022F00008316031311151119052F080076
:100E100083120313F600760E0F39303EF70083126B
:100E2000031376080F39303EF800080083160313C9
:100E300011141118192F1030831203139300831605
:100E400003131419212F8316031383160313111B85
:100E50003A2F83120313700883120313930083162F
:100E600003131419312F8316031383160313111B55
:100E70003A2F3A2F83160313111511193D2F08002D
:100E80008316031311141118432F11308312031307
:100E900093008316031314194B2F83160313831621
:100EA0000313111B642F8316031391159119562FE9
:100EB00083120313130883120313F0008316031322
:100EC00091161116111A622F831603131115111999
:100ED000672F080083128815AB27AB27AB27333069
:100EE0008B27AB27AB2732308B27AB27AB2728309C
:100EF0008B27AB27AB270C308B27AB27AB270630D4
:100F00008B27AB27AB2701308B27AB27AB270800FC
:100F100001308B2708000811F300F039880088158C
:100F2000AB278811730EF03988008815AB2788111C
:100F3000AB2708000815F4007408F039043E880057
:100F40008815AB278811740EF039043E8800881587
:100F5000AB27881108001430F200FF30F100F10BCC
:080F6000AF2FF20BAD2F0800CA
:02400E00723FFF
:00000001FF
