:020000040000FA
:10000000442845226C08C1245726D201D1016A0830
:10001000D20011205608C12457265708C12457265C
:100020000800510E0F39F03ED400D407E23ED5004F
:10003000323ED70051080F39D507D507D707E93E1B
:10004000D600D607D607520E0F39D607D707D60DDA
:10005000D70DD709D70D52080F39D707D40D073060
:10006000D3000A30D603D707031C3228D503D6079E
:10007000031C3628D403D507031C3A28D303D4071E
:10008000031C3E28003408008B018316FF308500D6
:10009000FE308600870188018901071687158312C3
:1000A00085018601870188018901292583120313AF
:1000B000F40183120313F3013B2583120313F30AA4
:1000C0003B2583120313F30A3B2583120313F30A20
:1000D0003B2583120313F30A3B2583120313F30A10
:1000E0003B2583120313F30A3B2518242726031309
:1000F000831606309F008312B301030133084D2499
:10010000003A031986285726B30A7E28B023B30184
:10011000030133087F24003A031991285726B30AB4
:100120008928E001ED01E3230814621463146414C8
:1001300065146614671468146914F101F201F3017F
:10014000F401F501F6018712071707108717071545
:10015000871406118611861CAB28060E0F39B900CC
:10016000060E0F39003A03195421060E0F39013AD1
:1001700003193A23060E0F39023A03193E23060EDD
:100180000F39033A03197422060E0F39043A031982
:100190008D21060E0F39053A03190F22060E0F396D
:1001A000063A03192A22060E0F39073A03191824B2
:1001B000060E0F39083A03199D22060E0F39093A27
:1001C00003193223060E0F390A3A03198421060E49
:1001D0000F390C3A03194A23060E0F390D3A031949
:1001E0005C23060E0F390E3A03196623060E0F39EB
:1001F0000F3A031989238618FB28AB2808008712B9
:100200000713B623061901294424061D04290717DC
:10021000B623B623B623B6236623B62386190D2943
:100220004424861D102966230800871634243424AC
:100230003424342434242A2208308F0203181B2942
:100240002A2206308F02031C2029282137217B29EE
:1002500087128923B623861D2B298923B623B6232B
:100260008713B623061D3229871787160800061440
:1002700087128E2245228A110A1245226A08ED0051
:100280006D08B90001206A22B3233A233A2382225F
:10029000B623B623B623B623B3233E233E238822B8
:1002A000B623B623061008000F222A228716EF0174
:1002B0000F220F308F0203186429EF0A03306F02F8
:1002C000031D5829FF201521EF0187162A22083027
:1002D0008F0203187229EF0A442403306F02031DB2
:1002E000652973217B29C6232A2206308F02031C2D
:1002F0007329372106100730600203198D29010880
:10030000480203198D2956290713B6230619852992
:100310004424061D8829071708008712FF200714A8
:10032000D3230710B323B301030133089D24003AFC
:1003300003199D295726B30A9529B023EB23A02939
:10034000861CA029060E0F39B900060E0F39003A97
:1003500003199D22060E0F39013A03199822060E41
:100360000F39023A03190023060E0F39033A031915
:100370007422060E0F39043A0319EB238618BE299E
:10038000A0298D29AB231F151F19C4291E08D100D0
:100390001E08D200B32311205308C1245726540845
:1003A000C12457265508C12457265608C12457266C
:1003B0005708C124572608008313423084000030B8
:1003C000600384075530D1020030031801308000EB
:1003D00008001F151F19EA291E08D1001E08D200A7
:1003E000B32311205308C12457265408C12457268B
:1003F0005508C12457265608C12457265708C1243A
:1004000057260800831349308400003060038407B6
:100410000330D102003003180130800008008F0142
:100420008E0108104424081444240810051D162ABF
:1004300010140519192A1010B3230F08D1000E0843
:10044000D20011205308C12457265408C12457262E
:10045000B32308008F018E0188104424881444249B
:100460008810851D312A10148519342A1010B323E1
:100470000F08D1000E08D20011205308C1245726BE
:100480005408C1245726B3230800EA01EB01EC010C
:100490003908003C0319080005306A07EA000930F2
:1004A0006B07EB00B9030A306B020318622A6A0873
:1004B000F000643070020318662A3908003C031DFE
:1004C0004C2A0800EA0A0A30EB025D2AEC0A643082
:1004D000EA025D2A83133B30840000306003840706
:1004E0000108B90080000800183048260800AB2831
:1004F000EB2386180800861808008618080086185E
:100500000800782A8312C5309F00C321DC2108002F
:100510008312CD309F00E92102220800B323E00AB4
:100520006008C12457260830600203198D2908008D
:10053000B3236008C12457260800B3230030DF002E
:100540008313413084006008DE00B30103013308E7
:10055000E124003A0319AF2A5726B30AA72A840ACE
:10056000DF0A5F08C1245726B301030133080925B8
:10057000003A0319BE2A5726B30AB62A0008000813
:10058000D5245726B30103013308FE24003A03198A
:10059000CC2A5726B30AC42ADE0BAF2AB023003078
:1005A000DF008313483084006008DE00B3010301DC
:1005B0003308F024003A0319E02A5726B30AD82A50
:1005C000840ADF0A5F08C1245726B30103013308F8
:1005D0000925003A0319EF2A5726B30AE72A00082B
:1005E0000008D5245726B30103013308FE24003A3E
:1005F0000319FD2A5726B30AF52ADE0BE02A080064
:10060000B3230030DF0083133A3084006008DE003B
:10061000B301030133081425003A0319122B57269E
:10062000B30A0A2BB023840ADF0A5F08C1245726C5
:10063000B301030133080925003A0319222B572679
:10064000B30A1A2B0008B9000120B30103013308D3
:10065000FE24003A03192F2B5726B30A272BDE0B53
:10066000132B08006218372B0614621408000610BA
:1006700062100800C5309F00C3210800CD309F00E4
:10068000C32108006318472B8712631408008716DC
:100690006310080064184F2B071364140800061D2C
:1006A00007170717641008006618592B07146614FB
:1006B00008000710661008006718612B8717671479
:1006C0000800061D071787136710080068186B2BB2
:1006D0009701681408008316031307111708F039EF
:1006E0000C3897001208D000C33083160313920011
:1006F0008312031392149501121792161216921573
:10070000971617166F309500971517151215681064
:10071000080069188E2B9D016914080083160313C5
:1007200087101D08F0390C389D00C3308316031361
:1007300092008312031392149B0112179216121641
:1007400092159D161D166F309B009D151D151215D7
:1007500083126910080097019D015008920008005B
:10076000C030482608000130482608008830B00014
:10077000BD30B1000330B200B00BBF2BB10BC12BA9
:10078000B20BBC2BC32B000000000800D130B50019
:100790004F30B6000230EE00B50BCF2BB60BD12B8D
:1007A000EE0BCC2B0800DA30B5006330B600AF306A
:1007B000EE00B50BDC2BB60BDE2BEE0BD92BE02BB2
:1007C000E12B0000080083160313283081008312F8
:1007D000031381010800023083120313F30076250E
:1007E000831203137508C5257708572678085726FE
:1007F0003A305726013083120313F3007625831213
:1008000003137508C52577085726780857263A3008
:100810005726003083120313F30076258312031347
:100820007508C52577085726780857263424080008
:10083000831203130230F300831203130030F40019
:100840003B25831203130130F3008312031300309E
:10085000F4003B25831203130030F30083120313CB
:100860000030F4003B2508001030B0007A30B100B1
:100870000630B200B00B3D2CB10B3F2CB20B3A2C22
:10088000412C0000000008001430B600FF30B50015
:10089000B50B482CB60B462C0800BA0004308A0071
:1008A0003A08563E03188A0A8200820731343A34E5
:1008B000533469346D3475346C3461347434693450
:1008C0006F346E347C3423342F3444343A3450340F
:1008D00057344D347C342A342F3430343A34533442
:1008E00074346434313426345334743464343234DC
:1008F0007C3433343A3442342F3457340034BA0021
:1009000004308A003A08883E03188A0A8200820767
:100910003534443469347334743461346E3463343C
:100920006534203436344C346F3463346134743479
:1009300069346F346E3473340034BA0004308A0082
:100940003A08A63E03188A0A8200820731345334DB
:100950007434693463346B346534723473342034E2
:100960003234423469346E347334203433344C348A
:100970006F3463346134743469346F346E34733477
:100980000034BA0004308A003A08CA3E03188A0AC2
:1009900082008207303431343234333434343534E5
:1009A00036343734383439340034BA0004308A00ED
:1009B0003A08DE3E03188A0A82008207423457341E
:1009C0000034BA0004308A003A08EA3E03188A0A62
:1009D00082008207463472346F346E3474340034CB
:1009E000BA0004308A003A08F93E03188A0A8200E5
:1009F00082074234613463346B340034BA0005300A
:100A00008A003A08073E03188A0A820082072034C7
:100A10000034BA0005308A003A08123E03188A0AE8
:100A2000820082073A340034BA0005308A003A085E
:100A30001D3E03188A0A82008207443469347334E5
:0E0A400074342034283463346D342934003487
:020A4E00003472
:020A5000003470
:0E0A52008316031394011830831603139300C8
:100A60000830831203139400941683160313111590
:100A70001119382D080083160313111411183E2D77
:100A8000D030831203139300831603131419462DD9
:100A90008316031383160313111B6F2D8312031385
:100AA0007308831203139300831603131419562D2E
:100AB0008316031383160313111B6F2D8312031365
:100AC0007408831203139300831603131419662DFD
:100AD0008316031383160313111B6F2D702D000053
:100AE0008316031311151119732D080083160313B0
:100AF00011141118792DD03083120313930083162B
:100B000003131419812D8316031383160313111B6A
:100B1000BE2D8312031373088312031393008316ED
:100B200003131419912D8316031383160313111B3A
:100B3000BE2D83160313911491189C2DD13083126E
:100B400003139300831603131419A42D83160313A0
:100B500083160313111BBE2D8316031391159119D0
:100B6000AF2D83120313130883120313F5008316AA
:100B7000031391161116111ABB2DBF2D00008316F9
:100B8000031311151119C22D080083120313F60067
:100B9000760E0F39303EF7008312031376080F39B3
:100BA000303EF80008008316031311141118D62DD7
:100BB0001030831203139300831603131419DE2DD0
:100BC0008316031383160313111BF72D83120313CC
:100BD0007008831203139300831603131419EE2D68
:100BE0008316031383160313111BF72DF72D83169A
:100BF000031311151119FA2D08008316031311148C
:100C00001118002E1130831203139300831603135F
:100C10001419082E8316031383160313111B212E98
:100C20008316031391159119132E831203131308BE
:100C300083120313F0008316031391161116111A71
:100C40001F2E8316031311151119242E0800831269
:100C50008815682668266826333048266826682660
:100C600032304826682668262830482668266826B6
:100C70000C304826682668260630482668266826EE
:100C800001304826682668260800013048260800FA
:100C90000811F300F0398800881568268811730E52
:100CA000F03988008815682688116826080008151C
:100CB000F4007408F039043E88008815682688110D
:100CC000740EF039043E88008815682688110800E3
:100CD0001430F200FF30F100F10B6C2EF20B6A2E93
:020CE00008000A
:02400E00723FFF
:00000001FF
