:020000040000FA
:1000000034283E0E0F39F03EC100C107E23EC20067
:10001000323EC4003E080F39C207C207C407E93E9A
:10002000C300C307C3073F0E0F39C307C407C30D7F
:10003000C40DC409C40D3F080F39C407C10D0730F2
:10004000C0000A30C303C407031C2228C203C3072D
:10005000031C2628C103C207031C2A28C003C107AA
:10006000031C2E28003408008B0183168501F23012
:10007000860087018801071687158312850186018E
:10008000870188015525532603138316051483120F
:10009000831606309F008312C5309F00B301030111
:1000A00033089623003A031958288326B30A5028A8
:1000B0009122B30103013308C123003A03196328D5
:1000C0008326B30A5B280814861C6428060E0F39A1
:1000D000B900060E0F39003A0319A420060E0F3995
:1000E000013A03194322060E0F39023A03193B2243
:1000F000060E0F39033A03190E22060E0F39043A81
:1001000003194B22060E0F39053A03192222060E57
:100110000F39063A03193B22060E0F39083A031924
:100120004322060E0F39093A03198C22060E0F39A5
:100130000E3A03195422060E0F390F3A03198C2276
:100140008618A028642808000030D800D3000717BC
:100150000130D307D319C3204322541CA42807130A
:100160009722871797229422B30103013308E024D2
:10017000003A0319BE288326B30AB628972297228D
:100180008713A428BC2907138716BC291F151F191C
:10019000C7281E08BE001E08BF0001207126831359
:1001A000433004080030580BD62808008407033079
:1001B000C002003003180130800040082725832644
:1001C000410827258326420827258326430827251B
:1001D00083264408272583269722972208000514A2
:1001E000C5309F0008008514CD309F00080007151A
:1001F0004008272583261F151F19FC281E08BE004E
:100200001E08BF00942201208313433004080030ED
:10021000580B0C29080084070330C0020030031873
:1002200001308000410827258326420827258326A0
:1002300043082725832644082725832697229722CB
:100240000711F72807151F151F1924291E08BE00BE
:100250001E08BF009422012040082725832641085C
:10026000272583264208272583264308272583261A
:10027000440827258326972294220130C0020030AB
:1002800003180130080007151F151F1945291E08FE
:10029000BE001E08BF0094220120400827258326A7
:1002A000410827258326420827258326430827253A
:1002B0008326440827258326972294220130C002F2
:1002C0000030031801300800822194220F08BE007C
:1002D0000E08BF0001204008272583264108272556
:1002E000832642082725832643082725832644089A
:1002F00027258326972294220130C002013003185B
:10030000003008008F018E010711A7220715B122C6
:100310000711051E89291014051A8C2910100800D0
:10032000AE2194220F08BE000E08BF000120400835
:10033000272583264108272583264208272583264B
:1003400043082725832644082725832697229422BD
:100350000130C00201300318003008008F018E0107
:100360008711A7228715B1228711851EB529101480
:10037000851AB829101008009422B301030133082C
:100380000524003A0319C7298326B30ABF299122FD
:10039000B301030133082924003A0319D229832623
:1003A000B30ACA2964289422B301030133084B24F9
:1003B000003A0319DE298326B30AD6299122B30114
:1003C000030133087024003A0319E9298326B30A8C
:1003D000E12908009422B301030133089D24003A67
:1003E0000319F5298326B30AED2908009422B301E5
:1003F00003013308C824003A0319012A8326B30AEB
:10040000F92908009422B30103013308E024003ADB
:1004100003190D2A8326B30A052A0800183074260A
:1004200008006428B6228618080086180800861876
:10043000080086180800122A9422D80A580827258E
:100440008326080094220030DA00831343308400AE
:100450005808D900400827258326F720840ADA0A9D
:100460005A08272583269722000800083B25832663
:10047000D90B2E2A08002221C50045083B258326DA
:100480009722972208004321D40054084725832649
:1004900097229722080064217126D5005508472528
:1004A0008326972297220800831603130711170843
:1004B000F0390C3897001208BB00C33083160313C1
:1004C00092008312031392149501121792161216BA
:1004D0009215971617160D309500971517151215CA
:1004E0008316031387101D08F0390C389D00C330A4
:1004F0008316031392008312031392149B011217A5
:100500009216121692159D161D1661309B009D15B0
:100510001D1512158312080095019B013B089200DE
:100520000800C030742608000130742608008830A6
:10053000B000BD30B1000330B200B00BA02AB10B47
:10054000A22AB20B9D2AA42A000000000800E7306E
:10055000B5000430B600B50BAE2AB60BAB2AB02AF4
:1005600008001430DB00DB0BB32A080001307426CE
:100570003230832630308326063083120313F30093
:10058000A225831203137508F125770883267808BE
:1005900083262F308326053083120313F300A22510
:1005A000831203137508F1257708832678088326BC
:1005B0002F308326043083120313F300A225831205
:1005C00003137508F1257708832678088326C03041
:1005D0007426023083120313F300A225831203133F
:1005E0007508F12577088326780883263A30832614
:1005F000013083120313F300A2258312031375083D
:10060000F12577088326780883263A308326003040
:1006100083120313F300A225831203137508F12537
:1006200077088326780883267E2308008312031325
:10063000F40183120313F301672583120313F30AF2
:10064000672583120313F30A672583120313F30A42
:10065000672583120313F30A672583120313F30A32
:10066000672583120313F30A6725831203130030EF
:10067000F300831203138030F40067258312031301
:100680000630F300831203131630F400672583123B
:1006900003130530F300831203130230F4006725BF
:1006A000831203130430F300831203131630F40093
:1006B0006725831203130330F300831203132130E1
:1006C000F4006725831203130230F300831203132F
:1006D0000130F4006725831203130130F300831205
:1006E00003133530F4006725831203130030F30041
:1006F000831203135030F400672508001030B00057
:100700007A30B1000630B200B00B872BB10B892BC9
:10071000B20B842B8B2B00000000080000303B251F
:100720008326080001303B2583260800BA000330E9
:100730008A003A089F3E03188A0A820082073134F1
:100740003A34203453347434613472347434203481
:100750007C34203423342F3444343A34203450341D
:1007600057344D3420347C34203432343A342034FD
:1007700043346F346C3420345434653473347434FB
:100780000034BA0003308A003A08CA3E03188A0AC5
:100790008200820733343A34203442342F345734C1
:1007A0002034743465347334743420347C3420340D
:1007B00041343A34203452346F34743461347434F4
:1007C000653420347C34203434343A342034553485
:1007D0005334203474346534733474340034BA00C0
:1007E00003308A003A08F83E03188A0A820082071A
:1007F0004F347034653472346134743469346E3417
:1008000067342E342E342E340034BA0004308A007B
:100810003A080E3E03188A0A820082075034723466
:1008200065347334733420343234203474346F3488
:10083000203464346934733470346C346134793402
:10084000203472346534733475346C3474347334D6
:100850000034BA0004308A003A08323E03188A0A8B
:100860008200820750347234653473347334203418
:100870004134203474346F34203472346F3474341F
:1008800061347434653420347334633472346534C1
:1008900065346E340034BA0004308A003A08543E9D
:1008A00003188A0A8200820733343A3420345034E1
:1008B00057344D34203474346534733474342C34E8
:1008C000203434343A342034533465346E34733441
:1008D0006F347234203454346534733474340034D7
:1008E000BA0004308A003A08793E03188A0A820066
:1008F000820736343A342034623469346E3420341A
:100900006C346F3463346134743469346F346E34EE
:1009100073342C34203438343A3420346F34703407
:10092000653472346134743469346F346E34203415
:10093000743469346D3465340034BA0004308A008C
:100940003A08A63E03188A0A82008207343420340B
:10095000623469346E347334203469346E34203434
:1009600074346F34743461346C340034BA0004303D
:100970008A003A08BF3E03188A0A8200820742347E
:1009800042345734423457345734573442340034A5
:10099000BA0004308A003A08D13E03188A0A82005D
:1009A000820730342E34333435342C3430342E3402
:1009B000353436342C3430342E3437343934003432
:1009C000BA0004308A003A08E93E03188A0A820015
:1009D00082074D346F34763469346E346734203492
:1009E000413472346D340034BA0004308A003A085D
:1009F000FD3E03188A0A82008207743461346B3426
:100A000069346E34203469346E3420346C3461348B
:100A10007234673465342034763461346C34753420
:100A200065340034BA0005308A003A081B3E0318CA
:100A30008A0A8200820773346D3461346C346C34FA
:100A40002034763461346C34753465340034BA0043
:100A500005308A003A08303E03188A0A820082076D
:100A6000303431343234333434343534363437344A
:100A7000383439340034BA0005308A003A08443E2C
:100A800003188A0A82008207423457340034BA00BD
:100A900005308A003A08503E03188A0A820082070D
:060AA0004E34593400340D
:040AA60000340034E4
:060AAA0083160313940102
:100AB0001830831603139300083083120313940035
:100AC00094168316031311151119642D080083164B
:100AD0000313111411186A2DD030831203139300DD
:100AE000831603131419722D83160313831603132D
:100AF000111B9B2D8312031373088312031393009E
:100B0000831603131419822D8316031383160313FC
:100B1000111B9B2D8312031374088312031393007C
:100B2000831603131419922D8316031383160313CC
:100B3000111B9B2D9C2D00008316031311151119F9
:100B40009F2D08008316031311141118A52DD03002
:100B5000831203139300831603131419AD2D831608
:100B6000031383160313111BEA2D83120313730857
:100B7000831203139300831603131419BD2D8316D8
:100B8000031383160313111BEA2D83160313911409
:100B90009118C82DD13083120313930083160313C9
:100BA0001419D02D8316031383160313111BEA2D7A
:100BB0008316031391159119DB2D83120313130868
:100BC00083120313F5008316031391161116111ADD
:100BD000E72DEB2D00008316031311151119EE2DCF
:100BE000080083120313F600760E0F39303EF7002B
:100BF0008312031376080F39303EF800080083167D
:100C0000031311141118022E1030831203139300D2
:100C10008316031314190A2E831603138316031362
:100C2000111B232E831203137008831203139300E6
:100C30008316031314191A2E831603138316031332
:100C4000111B232E232E8316031311151119262E83
:100C5000080083160313111411182C2E113083125F
:100C600003139300831603131419342E83160313EE
:100C700083160313111B4D2E83160313911591191F
:100C80003F2E83120313130883120313F0008316FD
:100C9000031391161116111A4B2E831603131115F7
:100CA0001119502E08008312881594269426942634
:100CB0003330742694269426323074269426942653
:100CC00028307426942694260C3074269426942674
:100CD0000630742694269426013074269426942691
:100CE00008000130742608000811F300F03988006C
:100CF000881594268811730EF0398800881594267B
:100D00008811942608000815F4007408F039043E90
:100D10008800881594268811740EF039043E8800E6
:100D200088159426881108001430F200FF30F10075
:0A0D3000F10B982EF20B962E08002E
:02400E00723FFF
:00000001FF
