:020000040000FA
:10000000442838226C08AD244326D201D1016A0865
:10001000D20011205608AD2443265708AD244326AC
:100020000800510E0F39F03ED400D407E23ED5004F
:10003000323ED70051080F39D507D507D707E93E1B
:10004000D600D607D607520E0F39D607D707D60DDA
:10005000D70DD709D70D52080F39D707D40D073060
:10006000D3000A30D603D707031C3228D503D6079E
:10007000031C3628D403D507031C3A28D303D4071E
:10008000031C3E28003408008B018316FF308500D6
:10009000FE308600870188018901071687158312C3
:1000A00085018601870188018901152583120313C3
:1000B000F40183120313F301272583120313F30AB8
:1000C000272583120313F30A272583120313F30A48
:1000D000272583120313F30A272583120313F30A38
:1000E000272583120313F30A272504241326031359
:1000F000831606309F008312B301030133083924AD
:10010000003A031986284326B30A7E28A223B301A6
:10011000030133086B24003A031991284326B30ADC
:100120008928E001ED01CF230814621463146414DC
:1001300065146614671468146914F101F201F3017F
:10014000F401F501F6018712071707108717071545
:10015000871406118611861CAB28060E0F39B900CC
:10016000060E0F39003A03194821060E0F39013ADD
:1001700003192C23060E0F39023A03193023060EF9
:100180000F39033A03196722060E0F39043A03198F
:100190008321060E0F39053A03190222060E0F3984
:1001A000063A03191D22060E0F39073A03190424D3
:1001B000060E0F39083A03198F22060E0F39093A35
:1001C00003192423060E0F390A3A03197621060E65
:1001D0000F390C3A03193C23060E0F390D3A031957
:1001E0004E23060E0F390E3A03195823060E0F3907
:1001F0000F3A03197B238618FB28AB2808008712C7
:100200000713A823061D02290717A823A823A8233C
:10021000A823582330243024861D0C295823871600
:1002200020242024202420242024202402220F30D3
:100230008F02031C1429202487121F2158297B2395
:10024000A823861D21297B23A823A8238713A8235D
:10025000061D2829871708008712812238228A1153
:100260000A1238226A08ED006D08B90001205D22EB
:10027000A5232C232C237522A823A823A823A82355
:10028000A523302330237B22A823A82306140800AB
:1002900002221D228716EF0102220F308F0203185F
:1002A0005829EF0A03306F02031D4C29FF20EF018C
:1002B0001D2208308F0203186429EF0A302403300E
:1002C0006F02031D582965216D29B8231D220630B0
:1002D0008F02031C65292C210610033060020319CC
:1002E000832901084802031983294A295823B8237E
:1002F000A823861D792958237B23B823A823861D8C
:100300007F297B237629A523B301030133088924A0
:10031000003A03198E294326B30A8629A223D7233C
:10032000871207149329861C9329060E0F39B900EA
:10033000060E0F39003A03198F22060E0F39013AC3
:1003400003198B22060E0F39023A0319F222060E08
:100350000F39033A03196722060E0F39043A0319BD
:10036000D7238618B129932983299D231F151F1987
:10037000B7291E08D1001E08D200A523112053085A
:10038000AD2443265408AD2443265508AD24432606
:100390005608AD2443265708AD244326080083138E
:1003A000423084000030600384075530D1020030B1
:1003B00003180130800008001F151F19DD291E08D1
:1003C000D1001E08D200A52311205308AD244326D6
:1003D0005408AD2443265508AD2443265608AD24C1
:1003E00043265708AD244326080083134930840070
:1003F0000030600384070330D1020030031801305D
:10040000800008008F018E01081030240814302469
:100410000810051D092A101405190C2A1010A5230F
:100420000F08D1000E08D20011205308AD24432636
:100430005408AD244326A52308008F018E0188109F
:100440003024881430248810851D242A101485191E
:10045000272A1010A5230F08D1000E08D200112062
:100460005308AD2443265408AD244326A523080091
:10047000EA01EB01EC013908003C031908000630E1
:100480006A07EA0003306B07EB00B9030A306B021E
:100490000318552A6A08F000643070020318592ABC
:1004A0003908003C031D3F2A0800EA0A0A30EB0223
:1004B000502AEC0A6430EA02502A83133B3084004D
:1004C0000030600384070108B9008000080018307C
:1004D00034260800AB28D7238618080086180800A1
:1004E00086180800861808006B2A8312C5309F0002
:1004F000B621CF2108008312CD309F00DC21F521E9
:100500000800A523E00A6008AD24432608306002F5
:100510000319832908006008AD2443260800A52399
:100520000030DF008313413084006008DE00B30137
:1005300003013308CD24003A0319A12A4326B30A44
:10054000992A840ADF0A5F08AD244326B301030118
:100550003308F524003A0319B02A4326B30AA82A1F
:1005600000080008C1244326B30103013308EA242C
:10057000003A0319BE2A4326B30AB62ADE0BA12A83
:10058000A2230030DF008313483084006008DE00BF
:10059000B30103013308DC24003A0319D22A4326AD
:1005A000B30ACA2A840ADF0A5F08AD244326B301CE
:1005B00003013308F524003A0319E12A4326B30A5C
:1005C000D92A00080008C1244326B30103013308D7
:1005D000EA24003A0319EF2A4326B30AE72ADE0B7E
:1005E000D22A0800A5230030DF0083133A308400AC
:1005F0006008DE00B301030133080025003A031947
:10060000042B4326B30AFC2AA223840ADF0A5F08CC
:10061000AD244326B30103013308F524003A03193E
:10062000142B4326B30A0C2B0008B9000120B30198
:1006300003013308EA24003A0319212B4326B30AA5
:10064000192BDE0B052B08006218292B06146214E7
:100650000800061062100800C5309F00B62108008F
:10066000CD309F00B62108006318392B8712631420
:1006700008008716631008006418412B07136414E0
:100680000800061D071707176410080066184B2B93
:100690000714661408000710661008006718532B2B
:1006A000871767140800061D0717871367100800CF
:1006B00068185D2B9701681408008316031307114F
:1006C0001708F0390C3897001208D000C330831691
:1006D00003139200831203139214950112179216BA
:1006E0001216921597161716603095009715171564
:1006F0001215681008006918802B9D016914080004
:100700008316031387101D08F0390C389D00C33081
:100710008316031392008312031392149B01121782
:100720009216121692159D161D1660309B009D158F
:100730001D15121583126910080097019D015008BC
:1007400092000800C030342608000130342608002A
:100750008830B000BD30B1000330B200B00BB12B17
:10076000B10BB32BB20BAE2BB52B00000000080071
:10077000D130B5004F30B6000230EE00B50BC12BC2
:10078000B60BC32BEE0BBE2B08004F30B500C430A8
:10079000B600B50BCC2BB60BBE2BCE2B08008316A8
:1007A00003132830810083120313810108000230F3
:1007B00083120313F3006225831203137508B12516
:1007C00077084326780843263A30432601308312BF
:1007D0000313F3006225831203137508B12577080C
:1007E0004326780843263A30432600308312031309
:1007F000F3006225831203137508B1257708432699
:100800007808432620240800831203130230F300E3
:10081000831203130030F4002725831203130130E1
:10082000F300831203130030F4002725831203130F
:100830000030F300831203130030F4002725080072
:100840001030B0007A30B1000630B200B00B292C65
:10085000B10B2B2CB20B262C2D2C00000000080015
:100860001430B600FF30B500B50B342CB60B322C6B
:100870000800BA0004308A003A08423E03188A0A87
:100880008200820731343A34533469346D3475341C
:100890006C346134743469346F346E347C34233492
:1008A0002F3444343A34503457344D347C342A3461
:1008B0002F3430343A34533474346434313426347D
:1008C00053347434643432347C3433343A34423400
:1008D0002F3457340034BA0004308A003A08743E8A
:1008E00003188A0A82008207353444346934733429
:1008F000743461346E3463346534203436344C34AB
:100900006F3463346134743469346F346E347334E7
:100910000034BA0004308A003A08923E03188A0A6A
:1009200082008207313453347434693463346B3455
:1009300065347234733420343234423469346E3462
:100940007334203433344C346F346334613474344E
:1009500069346F346E3473340034BA0004308A0062
:100960003A08B63E03188A0A8200820730343134CE
:10097000323433343434353436343734383439342B
:100980000034BA0004308A003A08CA3E03188A0AC2
:1009900082008207423457340034BA0004308A009F
:1009A0003A08D63E03188A0A820082074634723417
:1009B0006F346E3474340034BA0004308A003A085C
:1009C000E53E03188A0A82008207423461346334A8
:1009D0006B340034BA0004308A003A08F33E03183E
:1009E0008A0A8200820720340034BA0004308A0068
:1009F0003A08FE3E03188A0A820082073A3400341D
:100A0000BA0005308A003A08093E03188A0A8200B3
:100A100082074434693473347434203428346334A2
:060A20006D34293400349E
:040A26000034003464
:060A2A0083160313940182
:100A300018308316031393000830831203139400B5
:100A400094168316031311151119242D080083160B
:100A50000313111411182A2DD0308312031393009D
:100A6000831603131419322D8316031383160313ED
:100A7000111B5B2D8312031373088312031393005E
:100A8000831603131419422D8316031383160313BD
:100A9000111B5B2D8312031374088312031393003D
:100AA000831603131419522D83160313831603138D
:100AB000111B5B2D5C2D00008316031311151119FA
:100AC0005F2D08008316031311141118652DD03003
:100AD0008312031393008316031314196D2D8316C9
:100AE000031383160313111BAA2D83120313730818
:100AF0008312031393008316031314197D2D831699
:100B0000031383160313111BAA2D831603139114C9
:100B10009118882DD1308312031393008316031389
:100B20001419902D8316031383160313111BAA2D7A
:100B300083160313911591199B2D83120313130828
:100B400083120313F5008316031391161116111A5D
:100B5000A72DAB2D00008316031311151119AE2D0F
:100B6000080083120313F600760E0F39303EF700AB
:100B70008312031376080F39303EF80008008316FD
:100B8000031311141118C22D103083120313930094
:100B9000831603131419CA2D831603138316031324
:100BA000111BE32D831203137008831203139300A8
:100BB000831603131419DA2D8316031383160313F4
:100BC000111BE32DE32D8316031311151119E62DC7
:100BD00008008316031311141118EC2D1130831221
:100BE00003139300831603131419F42D83160313B0
:100BF00083160313111B0D2E8316031391159119E0
:100C0000FF2D83120313130883120313F0008316BE
:100C1000031391161116111A0B2E831603131115B7
:100C20001119102E080083128815542654265426B4
:100C30003330342654265426323034265426542653
:100C400028303426542654260C3034265426542674
:100C50000630342654265426013034265426542691
:100C600008000130342608000811F300F03988002C
:100C7000881554268811730EF0398800881554267B
:100C80008811542608000815F4007408F039043E51
:100C90008800881554268811740EF039043E8800A7
:100CA00088155426881108001430F200FF30F10036
:0A0CB000F10B582EF20B562E08002F
:02400E00723FFF
:00000001FF
