:020000040000FA
:1000000044284A226C08C1245726D201D1016A082B
:10001000D20011205608C12457265708C12457265C
:100020000800510E0F39F03ED400D407E23ED5004F
:10003000323ED70051080F39D507D507D707E93E1B
:10004000D600D607D607520E0F39D607D707D60DDA
:10005000D70DD709D70D52080F39D707D40D073060
:10006000D3000A30D603D707031C3228D503D6079E
:10007000031C3628D403D507031C3A28D303D4071E
:10008000031C3E28003408008B018316FF308500D6
:10009000FE308600870188018901071687158312C3
:1000A00085018601870188018901292583120313AF
:1000B000F40183120313F3013B2583120313F30AA4
:1000C0003B2583120313F30A3B2583120313F30A20
:1000D0003B2583120313F30A3B2583120313F30A10
:1000E0003B2583120313F30A3B2518242726031309
:1000F000831606309F008312B301030133084D2499
:10010000003A031986285726B30A7E28B223B30182
:10011000030133087F24003A031991285726B30AB4
:100120008928E001ED01E3230814621463146414C8
:1001300065146614671468146914F101F201F3017F
:10014000F401F501F6018712071707108717071545
:10015000871406118611861CAB28060E0F39B900CC
:10016000060E0F39003A03195421060E0F39013AD1
:1001700003193C23060E0F39023A03194023060ED9
:100180000F39033A03197922060E0F39043A03197D
:100190009221060E0F39053A03191422060E0F3963
:1001A000063A03192F22060E0F39073A03191824AD
:1001B000060E0F39083A0319A222060E0F39093A22
:1001C00003193423060E0F390A3A03198921060E42
:1001D0000F390C3A03194C23060E0F390D3A031947
:1001E0005E23060E0F390E3A03196823060E0F39E7
:1001F0000F3A03198B238618FB28AB2808008712B7
:100200000713B823061901294424061D04290717DA
:10021000B823B823B823B8236823B82386190D2937
:100220004424861D10296823B82308008716342427
:1002300034243424342434242F2208308F02031829
:100240001C292F2206308F02031C212929213B2142
:100250007B2987128B23B8238B238B23B823861DFE
:100260002F298B23B823B8238713B823061D3629DB
:100270008717871608000614871293224A228A11CC
:100280000A124A226A08ED006D08B90001206F22A7
:10029000B5233C233C238722B823B52340234023A6
:1002A0008D22B8230610080014222F228716EF0192
:1002B00014220F308F0203186429EF0A03306F02F3
:1002C000031D5829FF201621EF0187162F22083021
:1002D0008F0203187229EF0A442403306F02031DB2
:1002E000652973217B29C8232F2206308F02031C26
:1002F00073293B21061005306002031D84298716EF
:1003000034243424B823922901084602031992297F
:1003100056290713B82306198A294424061D8D2956
:10032000071708008712FF200714D5230710B523ED
:10033000B301030133089D24003A0319A22957266B
:10034000B30A9A29B223EB23A529861CA529060EF8
:100350000F39B900060E0F39003A0319A222060E12
:100360000F39013A03199D22060E0F39023A03197B
:100370000523060E0F39033A03197922060E0F39A9
:10038000043A0319EB238618C329A5299229AD2322
:100390001F151F19C9291E08D1001E08D200B52338
:1003A00011205308C12457265408C1245726550844
:1003B000C12457265608C12457265708C12457265A
:1003C00008008313423084000030600384079C30AF
:1003D000D102003003180130800008001F151F19DA
:1003E000EF291E08D1001E08D200B52311205308A2
:1003F000C12457265408C12457265508C12457261E
:100400005608C12457265708C124572608008313CD
:10041000493084000030600384070A30D102003084
:1004200003180130800008008F018E010810442459
:10043000081444240810051D1B2A101405191E2A2F
:100440001010B5230F08D1000E08D2001120530858
:10045000C12457265408C1245726B52308008F010C
:100460008E0188104424881444248810851D362A5F
:1004700010148519392A1010B5230F08D1000E0861
:10048000D20011205308C12457265408C1245726EE
:10049000B5230800EA01EB01EC013908003C03191F
:1004A000080005306A07EA0009306B07EB00B90362
:1004B0000A306B020318672A6A08F0006430700281
:1004C00003186B2A3908003C031D512A0800EA0A68
:1004D0000A30EB02622AEC0A6430EA02622A8313D1
:1004E0003B3084000030600384070108B9008000BD
:1004F0000800183048260800AB28EB2386180800AF
:100500008618080086180800861808007D2A8312BD
:10051000C5309F00C821E12108008312CD309F0023
:10052000EE2107220800B523E00A6008C1245726FF
:1005300008306002031992290800B5236008C1241D
:1005400057260800B5230030DF00831341308400B4
:100550006008DE00B30103013308E124003A031907
:10056000B42A5726B30AAC2A840ADF0A5F08C124DA
:100570005726B301030133080925003A0319C32A9A
:100580005726B30ABB2A00080008D5245726B30112
:1005900003013308FE24003A0319D12A5726B30A6F
:1005A000C92ADE0BB42AB2230030DF00831348309F
:1005B00084006008DE00B30103013308F024003A30
:1005C0000319E52A5726B30ADD2A840ADF0A5F08E1
:1005D000C1245726B301030133080925003A031942
:1005E000F42A5726B30AEC2A00080008D524572617
:1005F000B30103013308FE24003A0319022B5726E6
:10060000B30AFA2ADE0BE52A0800B5230030DF0022
:1006100083133A3084006008DE00B301030133081D
:100620001425003A0319172B5726B30A0F2BB223B0
:10063000840ADF0AB301030133080925003A0319CC
:10064000242B5726B30A1C2B0008B9000120B30144
:1006500003013308FE24003A0319312B5726B30A4D
:10066000292BDE0B182B08006218392B0614621494
:100670000800061062100800C5309F00C82108005D
:10068000CD309F00C82108006318492B87126314DE
:1006900008008716631008006418512B07136414B0
:1006A0000800061D071707176410080066185B2B63
:1006B0000714661408000710661008006718632BFB
:1006C000871767140800061D0717871367100800AF
:1006D00068186D2B9701681408008316031307111F
:1006E0001708F0390C3897001208D000C330831671
:1006F000031392008312031392149501121792169A
:1007000012169215971617166F3095009715171534
:100710001215681008006918902B9D0169140800D3
:100720008316031387101D08F0390C389D00C33061
:100730008316031392008312031392149B01121762
:100740009216121692159D161D166F309B009D1560
:100750001D15121583126910080097019D0150089C
:1007600092000800C03048260800013048260800E2
:100770008830B000BD30B1000330B200B00BC12BE7
:10078000B10BC32BB20BBE2BC52B00000000080021
:10079000D130B5004F30B6000230EE00B50BD12B92
:1007A000B60BD32BEE0BCE2B08006330B500163002
:1007B000B600D030EE00B50BDE2BB60BE02BEE0B07
:1007C000DB2B0000080083160313283081008312FE
:1007D000031381010800023083120313F30076250E
:1007E000831203137508C5257708572678085726FE
:1007F0003A305726013083120313F3007625831213
:1008000003137508C52577085726780857263A3008
:100810005726003083120313F30076258312031347
:100820007508C52577085726780857263424080008
:10083000831203130230F300831203130030F40019
:100840003B25831203130130F3008312031300309E
:10085000F4003B25831203130030F30083120313CB
:100860000030F4003B2508001030B0007A30B100B1
:100870000630B200B00B3D2CB10B3F2CB20B3A2C22
:10088000412C0000000008001430B600FF30B50015
:10089000B50B482CB60B462C0800BA0004308A0071
:1008A0003A08563E03188A0A8200820731343A34E5
:1008B000533469346D3475346C3461347434693450
:1008C0006F346E347C3423342F3444343A3450340F
:1008D00057344D347C342A342F3430343A34533442
:1008E00074346434313426345334743464343234DC
:1008F0007C3433343A3442342F3457340034BA0021
:1009000004308A003A08883E03188A0A8200820767
:100910003534443469347334743461346E3463343C
:100920006534203436344C346F3463346134743479
:1009300069346F346E3473340034BA0004308A0082
:100940003A08A63E03188A0A8200820731345334DB
:100950007434693463346B346534723473342034E2
:100960003234423469346E347334203433344C348A
:100970006F3463346134743469346F346E34733477
:100980000034BA0004308A003A08CA3E03188A0AC2
:1009900082008207303431343234333434343534E5
:1009A00036343734383439340034BA0004308A00ED
:1009B0003A08DE3E03188A0A82008207423457341E
:1009C0000034BA0004308A003A08EA3E03188A0A62
:1009D00082008207463472346F346E3474340034CB
:1009E000BA0004308A003A08F93E03188A0A8200E5
:1009F00082074234613463346B340034BA0005300A
:100A00008A003A08073E03188A0A820082072034C7
:100A10000034BA0005308A003A08123E03188A0AE8
:100A2000820082073A340034BA0005308A003A085E
:100A30001D3E03188A0A82008207443469347334E5
:0E0A400074342034283463346D342934003487
:020A4E00003472
:020A5000003470
:0E0A52008316031394011830831603139300C8
:100A60000830831203139400941683160313111590
:100A70001119382D080083160313111411183E2D77
:100A8000D030831203139300831603131419462DD9
:100A90008316031383160313111B6F2D8312031385
:100AA0007308831203139300831603131419562D2E
:100AB0008316031383160313111B6F2D8312031365
:100AC0007408831203139300831603131419662DFD
:100AD0008316031383160313111B6F2D702D000053
:100AE0008316031311151119732D080083160313B0
:100AF00011141118792DD03083120313930083162B
:100B000003131419812D8316031383160313111B6A
:100B1000BE2D8312031373088312031393008316ED
:100B200003131419912D8316031383160313111B3A
:100B3000BE2D83160313911491189C2DD13083126E
:100B400003139300831603131419A42D83160313A0
:100B500083160313111BBE2D8316031391159119D0
:100B6000AF2D83120313130883120313F5008316AA
:100B7000031391161116111ABB2DBF2D00008316F9
:100B8000031311151119C22D080083120313F60067
:100B9000760E0F39303EF7008312031376080F39B3
:100BA000303EF80008008316031311141118D62DD7
:100BB0001030831203139300831603131419DE2DD0
:100BC0008316031383160313111BF72D83120313CC
:100BD0007008831203139300831603131419EE2D68
:100BE0008316031383160313111BF72DF72D83169A
:100BF000031311151119FA2D08008316031311148C
:100C00001118002E1130831203139300831603135F
:100C10001419082E8316031383160313111B212E98
:100C20008316031391159119132E831203131308BE
:100C300083120313F0008316031391161116111A71
:100C40001F2E8316031311151119242E0800831269
:100C50008815682668266826333048266826682660
:100C600032304826682668262830482668266826B6
:100C70000C304826682668260630482668266826EE
:100C800001304826682668260800013048260800FA
:100C90000811F300F0398800881568268811730E52
:100CA000F03988008815682688116826080008151C
:100CB000F4007408F039043E88008815682688110D
:100CC000740EF039043E88008815682688110800E3
:100CD0001430F200FF30F100F10B6C2EF20B6A2E93
:020CE00008000A
:02400E00723FFF
:00000001FF
