:020000040000FA
:100000003428510E0F39F03ED400D407E23ED5001B
:10001000323ED70051080F39D507D507D707E93E3B
:10002000D600D607D607520E0F39D607D707D60DFA
:10003000D70DD709D70D52080F39D707D40D073080
:10004000D3000A30D603D707031C2228D503D607CE
:10005000031C2628D403D507031C2A28D303D4075E
:10006000031C2E28003408008B018316FF30850006
:10007000FE308600870188018901071687158312E3
:1000800085018601870188018901A4258312031354
:10009000F40183120313F301B62583120313F30A49
:1000A000B62583120313F30AB62583120313F30A4A
:1000B000B62583120313F30AB62583120313F30A3A
:1000C000B62583120313F30AB6259724A226031339
:1000D000831606309F008312B30103013308CC243A
:1000E000003A03197628D226B30A6E280324B301F6
:1000F00003013308FE24003A03198128D226B30AEB
:100100007928E001ED012F240814621463146414AB
:1001100065146614671468146914871207170710AA
:10012000871707158714861C9328060E0F39B90008
:10013000060E0F39003A03193D21060E0F39013A18
:1001400003197D23060E0F39023A03198723060E81
:100150000F39033A03199722060E0F39043A03198F
:100160009B22060E0F39053A03199123060E0F390B
:10017000063A03199323060E0F39073A0319B122E1
:10018000060E0F39083A0319BF22060E0F39093A35
:1001900003197A21060E0F390A3A03195621060E61
:1001A0000F390C3A03199D23060E0F390D3A031926
:1001B000AF23060E0F390E3A0319B923060E0F3975
:1001C0000F3A0319DC238618E328932808008712C6
:1001D000061007132624061DEA28071709240924F8
:1001E000092409240924092409240924B9230924F8
:1001F000B92387160614092409240924092409248B
:100200000924092409241C220F308F02031C012910
:10021000871206100C210800DC231924DC23092492
:100220000924092487132624861D1329871708000B
:1002300009248712B1226E228A110A126E226A08DC
:10024000ED00D201D1016D08D200012055083C25F6
:10025000D22656083C25D22657083C25D2268A228B
:100260000624A52209240924092409240624AB22F2
:10027000092409240610080061291C22452287232D
:100280007D2387161C220F308F02031CE720452296
:1002900006308F02031C4D2153290924182187168B
:1002A000092409240614E01C412961290713262486
:1002B000061D5729071787132624861D5C298717D3
:1002C00056290624B301030133081C25003A0319FB
:1002D0006C29D226B30A64290324B301030133082D
:1002E000FE24003A03197729D226B30A6F29871210
:1002F000071483298716B324B324B324B324B32467
:10030000B32487128329861C8329060E0F39B9006E
:10031000060E0F39003A03193724060E0F39023A38
:100320000319BF22060E0F39033A03199722060E4E
:100330000F39043A0319BB22060E0F39053A031987
:100340006023060E0F39063A03192223060E0F39D1
:10035000073A0319B1228618AB2983296129FE23A4
:100360001F151F19B1291E08D1001E08D20006242E
:10037000012053083C25D22654083C25D226550896
:100380003C25D22656083C25D22657083C25D226A5
:100390000800831342308400003060038407293052
:1003A000D102003003180130800008001F151F190A
:1003B000D7291E08D1001E08D200062401205308A8
:1003C0003C25D22654083C25D22655083C25D22669
:1003D00056083C25D22657083C25D2260800831310
:1003E000493084000030600384072930D102003096
:1003F00003180130800008001F151F19FD291E0871
:10040000D1001E08D2000624012053083C25D22624
:1004100054083C25D22655083C25D22656083C25B2
:10042000D22657083C25D226092406240130D302BF
:100430000030031801300800392206240F08D100CB
:100440000E08D200012053083C25D22654083C2532
:10045000D22655083C25D22656083C25D2265708D8
:100460003C25D22606240130D30201300318003087
:1004700008008F018E010814C3240810051D3E2AB0
:1004800010140519412A10100800622206240F08D2
:10049000D1000E08D200012053083C25D226540872
:1004A0003C25D22655083C25D22656083C25D22686
:1004B00057083C25D22606240330D3020130031806
:1004C000003008008F018E018814C3248810851D18
:1004D000672A101485196A2A10100800EA01EB0136
:1004E0000108B9003908003C0319080002306A0706
:1004F000EA0001306B07EB00B9030A306B02031806
:1005000086223908003C031D762A0800EA0A0A30D0
:10051000EB02812A83133B308400003060038407A0
:100520008A110A126E226A088000800008001830C2
:10053000C326080093283724861808008618080068
:1005400086180800861808009B2A831205309F0031
:10055000B021C9210800831215309F00D621EF2158
:1005600008000624E00A60083C25D2260730600215
:1005700003196129080060083C25D22608000624DA
:100580000030DF008313413084006008DE00B301D7
:10059000030133085C25003A0319D12AD226B30A95
:1005A000C92A840ADF0A5F083C25D226B301030169
:1005B00033088425003A0319E02AD226B30AD82A40
:1005C000000800085025D226B3010301330879251D
:1005D000003A0319EE2AD226B30AE62ADE0BD12A04
:1005E00003240030DF008313483084006008DE00FD
:1005F000B301030133086B25003A0319022BD226FD
:10060000B30AFA2A840ADF0A5F083C25D226B3011E
:10061000030133088425003A0319112BD226B30AAB
:10062000092B000800085025D226B3010301330826
:100630007925003A03191F2BD226B30A172BDE0B9C
:10064000022B080006240030DF0083133A308400B8
:100650006008DE00B301030133088F25003A031957
:10066000342BD226B30A2C2B0324840ADF0A5F081A
:100670003C25D226B301030133088425003A03192F
:10068000442BD226B30A3C2B0008D201D10100082A
:10069000D200012055083C25D22656083C25D226FA
:1006A00057083C25D226B301030133087925003AC7
:1006B00003195D2BD226B30A552BDE0B352B080010
:1006C0006E228A110A126E226A08ED00D201D1014F
:1006D0006D08D200012055083C25D22656083C253D
:1006E000D22657083C25D226080062187A2B061419
:1006F00062140800061062100800C5309F00FC213B
:10070000C20042085025D226092409240800CD3011
:100710009F00FC21C20042085025D226092409244A
:1007200008001C22912B4522932B63189A2B8712C9
:10073000631408008716631008006418A22B0713BF
:1007400064140800061D07170717641008006618D0
:10075000AC2B071466140800071066100800671811
:10076000B42B871767140800061D07178713671037
:1007700008006818BE2B970168140800831603133D
:1007800007111708F0390C3897001208D000C33051
:100790008316031392008312031392149501121708
:1007A0009216121692159716171660309500971527
:1007B00017151215681008006918E12B9D016914BE
:1007C00008008316031387101D08F0390C389D00AC
:1007D000C3308316031392008312031392149B01F8
:1007E00012179216121692159D161D1660309B0058
:1007F0009D151D15121583126910080097019D01A2
:10080000500892000800C030C32608000130C326FB
:1008100008008830B000BD30B1000330B200B00B2A
:10082000122CB10B142CB20B0F2C162C0000000054
:1008300008008630B500A330B6000230EE00B50BDC
:10084000222CB60B242CEE0B1F2C00004F30B500D1
:10085000C430B600B50B2D2CB60B1F2C2F2C8316D5
:100860000313283081008312031381010800013033
:10087000C3263230D2263030D226063083120313FC
:10088000F300F12583120313750840267708D2265A
:100890007808D2262F30D226053083120313F300B6
:1008A000F12583120313750840267708D2267808AD
:1008B000D2262F30D226043083120313F300F12501
:1008C00083120313750840267708D2267808D226AB
:1008D000C030C326023083120313F300F1258312C4
:1008E0000313750840267708D2267808D2263A30B6
:1008F000D226013083120313F300F1258312031370
:10090000750840267708D2267808D2263A30D226B3
:10091000003083120313F300F125831203137508CB
:1009200040267708D2267808D226B32408008312FE
:1009300003130230F300831203130030F400B625D2
:10094000831203130130F300831203130030F40009
:10095000B625831203130030F30083120313003013
:10096000F400B62508001030B0007A30B10006302F
:10097000B200B00BBC2CB10BBE2CB20BB92CC02CEE
:100980000000000008001430B600FF30B500B50BC1
:10099000C72CB60BC52C0800BA0004308A003A08F0
:1009A000D53E03188A0A8200820731343A34533420
:1009B00069346D3475346C346134743469346F3433
:1009C0006E347C3423342F3444343A345034573426
:1009D0004D347C342A342F3430343A345334743424
:1009E00064343134263453347434643432347C34D3
:1009F00033343A3442342F3457340034BA0005309B
:100A00008A003A08073E03188A0A820082073534B2
:100A1000443469347334743461346E34633465340B
:100A2000203436344C346F34633461347434693474
:100A30006F346E3473340034BA0005308A003A08DB
:100A4000253E03188A0A82008207313454346934FF
:100A50006D3465342034333453347434693463343E
:100A60006B34653472347334203434342334423478
:100A700069346E3473340034BA0005308A003A08A1
:100A8000453E03188A0A82008207303431343234FA
:100A9000333434343534363437343834393400343C
:100AA000BA0005308A003A08593E03188A0A8200C3
:100AB0008207423457340034BA0005308A003A08BD
:100AC000653E03188A0A82008207463472346F3406
:100AD0006E3474340034BA0005308A003A08743E2B
:100AE00003188A0A820082074234613463346B340B
:100AF0000034BA0005308A003A08823E03188A0A98
:100B00008200820720340034BA0005308A003A0897
:100B10008D3E03188A0A820082073A340034BA00F4
:100B200005308A003A08983E03188A0A8200820734
:100B300044346934733474342034283463346D3469
:040B40002934003420
:040B44000034003445
:080B4800831603139401183019
:100B50008316031393000830831203139400941632
:100B60008316031311151119B32D080083160313EF
:100B700011141118B92DD03083120313930083166A
:100B800003131419C12D8316031383160313111BAA
:100B9000EA2D831203137308831203139300831641
:100BA00003131419D12D8316031383160313111B7A
:100BB000EA2D831203137408831203139300831620
:100BC00003131419E12D8316031383160313111B4A
:100BD000EA2DEB2D00008316031311151119EE2DCC
:100BE00008008316031311141118F42DD03083124A
:100BF00003139300831603131419FC2D8316031398
:100C000083160313111B392E8312031373088312E7
:100C1000031393008316031314190C2E8316031366
:100C200083160313111B392E831603139114911885
:100C3000172ED13083120313930083160313141954
:100C40001F2E8316031383160313111B392E8316CD
:100C50000313911591192A2E83120313130883127B
:100C60000313F5008316031391161116111A362E6D
:100C70003A2E000083160313111511193D2E08009A
:100C800083120313F600760E0F39303EF7008312FD
:100C9000031376080F39303EF8000800831603135B
:100CA00011141118512E1030831203139300831660
:100CB00003131419592E8316031383160313111BE0
:100CC000722E83120313700883120313930083168A
:100CD00003131419692E8316031383160313111BB0
:100CE000722E722E8316031311151119752E08001A
:100CF00083160313111411187B2E11308312031362
:100D00009300831603131419832E8316031383167B
:100D10000313111B9C2E83160313911591198E2E0C
:100D200083120313130883120313F00083160313B3
:100D300091161116111A9A2E8316031311151119F3
:100D40009F2E080083128815E326E326E32633301E
:100D5000C326E326E3263230C326E326E3262830E3
:100D6000C326E326E3260C30C326E326E32606301B
:100D7000C326E326E3260130C326E326E326080044
:100D80000130C32608000811F300F03988008815E7
:100D9000E3268811730EF03988008815E326881140
:100DA000E32608000815F4007408F039043E8800B2
:100DB0008815E3268811740EF039043E88008815E2
:100DC000E326881108001430F200FF30F100F10B27
:080DD000E72EF20BE52E0800EE
:02400E00723FFF
:00000001FF
